:100000000C94C1000C94E9000C94E9000C94E900F4
:100010000C94E9000C94E9000C94E9000C94E900BC
:100020000C94E9000C9436060C94E9000C94A80694
:100030000C94E9000C94E9000C94E9000C94E9009C
:100040000C94EC050C94E9000C9436120C941012EC
:100050000C94E9000C94E9000C94E9000C94E9007C
:100060000C94E9000C94E900210946093509460978
:100070004609460946094609460946094609460908
:1000800046092C09460946093E09460900090B099B
:100090001609D009F509E409F509F509F509F50985
:1000A000F509F509F509F509F509F509DB09F5097A
:1000B000F509ED09F509AF09BA09C509084AD73BA1
:1000C0003BCE016E84BCBFFDC12F3D6C74319ABD27
:1000D00056833DDA3D00C77F11BED9E4BB4C3E914B
:1000E0006BAAAABE000000803F072C7AA5BA6CC597
:1000F00090DA3B9365FC8BBC53F810FD3C56928321
:100100004DBD879D3AB63DCBC9BF5BBE73DA0FC903
:100110003F05A84CCDB2D44EB93836A9020C50B91F
:10012000918688083CA6AAAA2ABE000000803F004B
:1001300000000000240027002A0000000000250025
:1001400028002B0004040404040404040202020234
:10015000020203030303030301020408102040808A
:100160000102040810200102040810200000000809
:10017000000201000003040700000000000000006E
:10018000B41211241FBECFEFD8E0DEBFCDBF13E005
:10019000A0E0B1E0E6EDFCE302C005900D92AA33C9
:1001A000B107D9F724E0AAE3B3E001C01D92A63B52
:1001B000B207E1F710E0C1ECD0E004C02197FE01E6
:1001C0000E945D1AC03CD107C9F70E94F3120C943B
:1001D000691E0C940000FC0190819C3080F58181A7
:1001E00028E830E0281B310987FD3395220F331FA3
:1001F000220F331F621773077CF0828128E532E0FB
:10020000281B310987FD3395220F331F220F331F1F
:10021000621773070CF49B0122503109220F331F20
:100220004FB7F894892F90E0FC01EE0FFF1F8E0F5F
:100230009F1FFC01E358FC4F328321834FBF089579
:100240000F931F93CF93DF93EC0188818C3008F0DC
:1002500086C0DB01BB27FD01E85AFE4F8491FD01FA
:10026000EC5BFE4FA491AA23A1F0B0E0AA0FBB1F44
:10027000FD01E05DFE4F05911491FD01E65CFE4F2E
:10028000A591B4919FB7F894D801EC918E2B8C93E3
:100290009FBF8881E82FF0E0DF01AA0FBB1FEA0FA4
:1002A000FB1FE358FC4F6F739081907C692B608338
:1002B00060E272E0FB01E41BF50BAF01F7FF02C047
:1002C0004D5F5F4F5595479555954795498340E656
:1002D00059E0BA01621B730B9B0177FF02C02D5FCF
:1002E0003F4F35952795359527952A836CE00E94D9
:1002F0003D1A9CE0899FB001112440E050E09A0132
:10030000260F371FF901EE0FFF1F2E0F3F1FF901B8
:10031000E358FC4F908196FD16C04F5F5F4F4C3005
:10032000510569F781110FC01092800082E080931F
:1003300081001092850010928400B19A80916F0024
:10034000826080936F00E881F0E0CF01880F991FF1
:10035000E80FF91FE358FC4F808180648083888117
:10036000DF91CF911F910F910895DC011196EC91CF
:100370001197F0E0CF01880F991FE80FF91FE3589C
:10038000FC4F80818F7B80831C962D913C911D9723
:100390001A964D915C911B976D91062E000C770B70
:1003A000CD010C9420018F929F92AF92BF92CF9279
:1003B000DF92EF92FF920F931F93CF93DF93EC01A5
:1003C0004A015B01CB01BA010E94E9116E857F856C
:1003D000072E000C880B990B0E94FA15A5019401B9
:1003E0000E94F31587FF52C068897989072E000C97
:1003F000880B990B0E94FA15A50194010E94B81967
:1004000018160CF043C08C829D82AE82BF820A8592
:100410001B85B801012E000C880B990B0E94FA1560
:100420006B017C0120E030E044E353E4C501B401FA
:100430000E948A184B015C016C857D85601B710BE5
:10044000072E000C880B990B0E94FA159B01AC013A
:10045000C501B4010E9459169B01AC01C701B60148
:100460000E94A7170E94FC1879876887CE01019621
:10047000DF91CF911F910F91FF90EF90DF90CF9080
:10048000BF90AF909F908F900C94EB00DF91CF9135
:100490001F910F91FF90EF90DF90CF90BF90AF90A2
:1004A0009F908F9008952F923F924F925F926F92FC
:1004B0007F928F929F92AF92BF92CF92DF92EF92F4
:1004C000FF920F931F93CF93DF93CDB7DEB7AA9719
:1004D0000FB6F894DEBF0FBECDBF9AA789A71B0148
:1004E0005A8349838901DC0112967C936E9311979C
:1004F00014965C934E93139716963C932E931597F0
:100500009F962D913D914D915C91D2972D833E8385
:100510004F835887D3962D913D914D915C91D697FD
:1005200029873A874B875C87D7962D913D914D91CE
:100530005C91DA97298B3A8B4B8B5C8B9B01DB01AF
:100540000E94631A6B017C0129813A81D9010E94C2
:10055000631AA7019601260F371F481F591F2D8BBD
:100560003E8B4F8B588F9801D8010E94631A2D89BA
:100570003E894F89588D620F731F841F951F0E94FB
:10058000FA150E94CB192B013C012D813E814F8130
:100590005885CA01B9010E9459166B017C01298551
:1005A0003A854B855C85CA01B9010E9459169B01A9
:1005B000AC01C701B6010E94A7176B017C010E9424
:1005C000CB194B015C01A3019201C301B2010E944E
:1005D0005916698F7A8F8B8F9C8F29893A894B891D
:1005E0005C89CA01B9010E9459166D8F7E8F8F8F69
:1005F00098A3A5019401C501B4010E94A71769A39E
:100600007AA38BA39CA3298D3A8D4B8D5C8DC7015A
:10061000B6010E94A7172D8D3E8D4F8D58A10E94C7
:10062000A6174B015C01A301920169A17AA18BA1DC
:100630009CA10E9459169B01AC01C501B4010E9406
:100640008A180E9495176D877E878F87988B2D81DA
:100650003E814F81588569857A858B859C850E946E
:1006600026184B015C016D897E898F89988D0E94C7
:10067000FA150E94CB199B01AC01B801110F880B30
:10068000990B2DA33EA34FA358A70E94FA152DA1A5
:100690003EA14FA158A50E9426186D837E838F83AB
:1006A00098872D8D3E8D4F8D58A1C701B6010E94B0
:1006B000A717298D3A8D4B8D5C8D0E94A6176B0173
:1006C0007C0129893A894B895C8969A17AA18BA12E
:1006D0009CA10E9459169B01AC01C701B6010E9462
:1006E0008A180E9495176B017C01A50194010E9454
:1006F000A61769877A878B879C87A50194016D85EA
:100700007E858F8598890E94A7172D813E814F8114
:1007100058850E94A7174B015C01B101330C880B6F
:10072000990B0E94FA159B01AC01A981BA81BD0108
:10073000BB0F880B990B2DA33EA34FA358A70E9474
:10074000FA152DA13EA14FA158A50E942618698334
:100750007A838B839C83A3019201C301B2010E941F
:100760000F1A882331F060E471E089EB93E00E9476
:10077000FA112D853E854F855889CA01B9010E941D
:100780000F1A882331F066E471E089EB93E00E9450
:10079000FA11A7019601C701B6010E940F1A88231A
:1007A00031F060E571E089EB93E00E94FA112BEDE6
:1007B0003FE049E450E469817A818B819C810E9409
:1007C0008A1820E030E044E353E40E945916AB015C
:1007D000BC01E9A5FAA5818D928D0E94D3012BED74
:1007E0003FE049E450E4C501B4010E948A1820E0CA
:1007F00030E044E353E40E945916AB01BC01A9A5C3
:10080000BAA55B968D919C915C970E94D301298536
:100810003A854B855C856BED7FE089E490E40E942E
:10082000A6172BED3FE049E450E40E948A1820E02F
:1008300030E044E353E40E945916AB01BC01E9A542
:10084000FAA5858D968D0E94D301A9A5BAA58C9194
:10085000882309F440C02D853E854F855889C701FE
:10086000B6010E94A7172BED3FE049EC5FE30E9421
:10087000A6172D813E814F8158850E94A7172BED29
:100880003FE049E450E40E948A1820E030E044E36D
:1008900053E40E945916AB01BC01E9A5FAA5878D66
:1008A00090A1AA960FB6F894DEBF0FBECDBFDF9120
:1008B000CF911F910F91FF90EF90DF90CF90BF905D
:1008C000AF909F908F907F906F905F904F903F90F0
:1008D0002F900C94D301AA960FB6F894DEBF0FBEEA
:1008E000CDBFDF91CF911F910F91FF90EF90DF90DF
:1008F000CF90BF90AF909F908F907F906F905F90C0
:100900004F903F902F9008952F923F924F925F9279
:100910006F927F928F929F92AF92BF92CF92DF920F
:10092000EF92FF920F931F93CF93DF9300D000D0ED
:1009300000D0CDB7DEB78091B7039091B8039E8306
:100940008D83DC015396ED91FC91549755960D9152
:100950001C915697E017F10769F451962D913C913F
:1009600052971F964D915C9150971D966D917C9179
:100970001E9710C1E017F1070CF015C1AD81BE81C3
:1009800057968D919C915897009709F4B8C001979C
:1009900009F002C1AD81BE811B96AD90BC901C9741
:1009A000BF01FF0F880B990B0E94FA152BED3FE05A
:1009B00049E450E40E9459166B017C01B801110F03
:1009C000880B990B0E94FA159B01AC01C701B60177
:1009D0000E948A180E9485189B01AC0160E070E0BB
:1009E00080E89FE30E94A6176B017C01ED81FE81E8
:1009F0000185128527803084B5010B2C000C880BF3
:100A0000990B0E94FA152B013C01AD81BE815196D4
:100A10006D917C9152976A197B09072E000C880B07
:100A2000990B0E94FA1520E030E040E05FE30E945D
:100A30005916A70196010E9459169B01AC01C301EA
:100A4000B2010E94A7170E94FC184B015C01B8017B
:100A5000012E000C880B990B0E94FA152B013C010A
:100A6000ED81FE8167857089601B710B072E000C7C
:100A7000880B990B0E94FA1520E030E040E05FE31C
:100A80000E945916A70196010E9459169B01AC01BC
:100A9000C301B2010E94A7170E94FC1869837A83E0
:100AA0008B839C83B101032C000C880B990B0E9453
:100AB000FA152B013C01AD81BE811D966D917C9193
:100AC0001E9762197309072E000C880B990B0E9460
:100AD000FA1520E030E040E05FE30E945916A701DC
:100AE00096010E9459169B01AC01C301B2010E94FC
:100AF000A7170E94FC18940149815A8149C0AD8111
:100B0000BE811B962D913C911C971996ED90FC90FF
:100B10001A971796CD90DC90189751964D915C914D
:100B20005297421B530B4E9FC0014F9F900D5E9FEB
:100B3000900D1124B8010E94491A260F371FAD816C
:100B4000BE811F964D915C9150974E195F094E9F43
:100B5000C0014F9F900D5E9F900D1124B8010E941F
:100B6000491AE60EF71EAD81BE811D964D915C912E
:100B70001E974C195D094E9FC0014F9F900D5E9FBF
:100B8000900D1124B8010E94491A6C0D7D1DA7011A
:100B90008D819E810E945302ED81FE81838994891B
:100BA0000196948B838B26960FB6F894DEBF0FBE0A
:100BB000CDBFDF91CF911F910F91FF90EF90DF900C
:100BC000CF90BF90AF909F908F907F906F905F90ED
:100BD0004F903F902F9008951F920F920FB60F9253
:100BE00011242F933F938F939F93AF93BF93809143
:100BF000A6039091A703A091A803B091A9033091F7
:100C0000A50323E0230F2D3720F40196A11DB11D6C
:100C100005C026E8230F0296A11DB11D2093A50350
:100C20008093A6039093A703A093A803B093A9036E
:100C30008091A1039091A203A091A303B091A4037A
:100C40000196A11DB11D8093A1039093A203A093CF
:100C5000A303B093A403BF91AF919F918F913F9154
:100C60002F910F900FBE0F901F9018951F920F920B
:100C70000FB60F9211242F933F934F935F936F936F
:100C80007F938F939F93AF93BF93EF93FF93809145
:100C9000B0039091B1038093B2008091B30390911F
:100CA000B403A091B503B091B6030196A11DB11D87
:100CB0008093B3039093B403A093B503B093B603AA
:100CC0008091B3039091B403A091B503B091B603A2
:100CD0004091AC035091AD036091AE037091AF03AE
:100CE00084179507A607B70710F18091B203811109
:100CF0001EC081E08093B2038091B3039091B4034E
:100D0000A091B503B091B603841B950BA60BB70B4E
:100D10008093B3039093B403A093B503B093B60349
:100D2000E091AA03F091AB0309951092B203FF91F1
:100D3000EF91BF91AF919F918F917F916F915F9153
:100D40004F913F912F910F900FBE0F901F901895CC
:100D50001F920F920FB60F9211242F933F934F9330
:100D60005F936F937F938F939F93AF93BF93EF9313
:100D7000FF9380917C0387FF05C01092850010923D
:100D800084001BC020917C03022E000C330B809149
:100D90007B0390E02817390784F480917C03082EA8
:100DA000000C990BFC01EE0FFF1F8E0F9F1FFC0123
:100DB000E358FC4F808186FD15C080917C038F5FD6
:100DC00080937C0320917C03022E000C330B8091D6
:100DD0007B0390E028173907C4F480917C038C30A2
:100DE00064F113C080917C03082E000C990BFC0168
:100DF000EE0FFF1F8E0F9F1FFC01E358FC4F8081F9
:100E000060E08F730E946812D8CF80918400909127
:100E10008500049680349C4918F480E49CE905C060
:100E2000809184009091850004969093890080932E
:100E300088008FEF80937C033BC020918400309129
:100E4000850080917C03082E000C990BFC01EE0FAD
:100E5000FF1F8E0F9F1FFC01E358FC4F8181928181
:100E6000820F931F909389008093880080917C0368
:100E7000082E000C990BFC01EE0FFF1F8E0F9F1F19
:100E8000FC01E358FC4F808186FF12C080917C03F7
:100E9000082E000C990BFC01EE0FFF1F8E0F9F1FF9
:100EA000FC01E358FC4F808161E08F730E9468125F
:100EB000FF91EF91BF91AF919F918F917F916F9132
:100EC0005F914F913F912F910F900FBE0F901F9008
:100ED0001895EF92FF920F931F93CF93DF93CDB7A7
:100EE000DEB728970FB6F894DEBF0FBECDBFE982FC
:100EF000FA820B831C832D833E834F8358878C019A
:100F00000F5F1F4F20917B032C30A0F431E0320F94
:100F100030937B03FC01218330E0F901EE0FFF1FCA
:100F20002E0F3F1FF901E358FC4F28EB3BE03283C3
:100F3000218303C02FEFFC012183FC01608328E0A3
:100F4000FE013196DC011A9601900D922A95E1F787
:100F5000FC012485358542855385062E000C770BD0
:100F6000C80128960FB6F894DEBF0FBECDBFDF9143
:100F7000CF911F910F91FF90EF900C9420016F92F1
:100F80007F928F929F92AF92BF92DF92EF92FF92E9
:100F90000F931F93CF93DF93CDB7DEB760970FB654
:100FA000F894DEBF0FBECDBF7C016AE571E089EB2E
:100FB00093E00E94FA11570183E2A80EB11C00E0F1
:100FC00010E0C8010E941717F50181935F010F5FC0
:100FD0001F4F08311105A9F75701F9E1AF0EB11CF8
:100FE00088E0D82ECE0109964C01380198E0690EB0
:100FF000711CC8010E941717F40181934F010F5F04
:101000001F4F06151705A9F7F501819191915F0111
:10101000FE013996DE0111962D2D01900D922A9533
:10102000E1F7FE013196DC011A962D2D01900D920B
:101030002A95E1F70E94B5010034110599F6F701F0
:1010400027A130A545A156A163A174A1C7010E94A3
:101050005302F70143A554A565A576A581A192A1E8
:1010600060960FB6F894DEBF0FBECDBFDF91CF9173
:101070001F910F91FF90EF90DF90BF90AF909F90E6
:101080008F907F906F900C94D3012F923F924F924C
:101090005F926F927F928F929F92AF92BF92CF9208
:1010A000DF92EF92FF920F931F93CF93DF93CDB711
:1010B000DEB7C659D1090FB6F894DEBF0FBECDBF5B
:1010C00010927A0389EB93E00E94A90F80933A0370
:1010D00010917A03E12FF0E0E65CFC4F80818A30CA
:1010E00081F5108261E771E089EB93E00E94FA11CB
:1010F0006AE373E089EB93E00E94FA110091B70371
:101100001091B803D80111968D909C901297139668
:10111000AD90BC90149715966D907C90169799960B
:101120004D905C909A9767ED72E08AE393E00E949D
:10113000BF151E01B1E42B0E311CC12CD12C710145
:1011400017C0103470F689EB93E00E94CB0F18168D
:1011500019060CF0BDCF1F5F10937A0389EB93E063
:101160000E94A90FE12FF0E0E65CFC4F8083B0CF36
:10117000009789F0EFEFCE1ADE0ABC01C1010E9490
:10118000C11B67ED72E080E090E00E94BF15F8E0BF
:101190002F0E311CEDCF6FE871E0C7010E94B81B24
:1011A000892B09F0A7C067E871E089EB93E00E9402
:1011B000FA11C60153E0880F991F5A95E1F7079776
:1011C000E80EF91E6CE4362E2224239421E0C21A84
:1011D000D1081C141D040CF05DC0F7013197E081AB
:1011E0008E2FEE0F990BAA0BBB0BFC01E654F109F5
:1011F000E531F10508F04AC0EC5CFF4F0C945D1A34
:1012000063E971E089EB93E00E94FA11C7010E9443
:10121000A1154C013BC065E971E089EB93E00E94A8
:10122000FA11C7010E94A1155C0130C067E971E0A5
:1012300089EB93E00E94FA11C7010E94A1153C01BD
:1012400025C069E971E089EB93E00E94FA11C701BA
:101250000E94A1152C011AC06BE971E089EB93E0A3
:101260000E94FA1143E5342E11C064EA71E089EB63
:1012700093E00E94FA11D8012C9208C066EA71E04E
:1012800089EB93E00E94FA11F8011082F8E0EF1A5E
:10129000F1089CCF8CE4381206C0D80158961C92F5
:1012A0001E92579705C081E090E0F801908F878BE0
:1012B000D80111968D919C91129718969C938E93BC
:1012C00017971E969C928E921D9713968D919C91C6
:1012D00014971A969C938E9319975096BC92AE923F
:1012E0001F9715968D919C9116971C969C938E93A3
:1012F0001B97B4C060EB71E0C7010E94B81B892B3B
:1013000009F0B9C068EA71E089EB93E00E94FA1134
:10131000C60123E0880F991F2A95E1F70797E80E89
:10132000F91E3CE4332E22242394E1E0CE1AD108A6
:101330001C141D040CF05DC0F7013197E0818E2F65
:10134000EE0F990BAA0BBB0BFC01E654F109E5313A
:10135000F10508F04AC0E75BFF4F0C945D1A63E9A2
:1013600071E089EB93E00E94FA11C7010E94A11578
:101370004C013BC065E971E089EB93E00E94FA11F2
:10138000C7010E94A1155C0130C067E971E089EBDB
:1013900093E00E94FA11C7010E94A1153C0125C0EB
:1013A00069E971E089EB93E00E94FA11C7010E949C
:1013B000A1152C011AC064EB71E089EB93E00E9447
:1013C000FA11B3E53B2E11C064EA71E089EB93E0BA
:1013D0000E94FA11F801208208C066EA71E089EBE8
:1013E00093E00E94FA11D8011C92B8E0EB1AF108C0
:1013F0009CCFFCE43F1206C0D80158961C921E9266
:10140000579705C081E090E0F801908F878BD80155
:1014100015968D919C91169713962D913C9114974A
:1014200011964D915C91129718965C934E93179775
:10143000840E951E1E969C928E921D971A963C9332
:101440002E931997A20EB31E5096BC92AE921F9780
:101450001C969C938E931B97680E791E52967C92D5
:101460006E92519756965C924E92559754961C9256
:101470001E925397EEC465EC71E0C7010E94B81B41
:10148000892BD1F56DEB71E089EB93E00E94FA11A5
:10149000B1E1EB0EF11C88248394912C8C149D04F3
:1014A0000CF0D7C4F701399780818335F1F4389671
:1014B00080818134D1F4C7010E94A1153C01C7018C
:1014C00008970E94A1155C01B301770C880B990B5A
:1014D0000E94FA15AB01BC01AA0CBB1CF801EA0D75
:1014E000FB1D818D928D0E94D301E2E08E0E911C36
:1014F000F0E1EF0EF11CD2CF61ED71E0C7010E9467
:10150000B81B892B09F076C069EC71E089EB93E098
:101510000E94FA1121E1E20EF11C22242394312CC5
:101520002C143D040CF095C4F70139978081833564
:1015300009F059C038968081803509F054C0C70140
:101540000E94A1154C01C70108970E94A115880FA0
:10155000991FF801E80FF91FA18CB28CD5011996DB
:101560009C928E9218971A96ED91FC911B97CF56EC
:10157000DF4FF983E883C159D040B4016E1B7F0B64
:10158000072E000C880B990B0E94FA1520E030E022
:1015900044E353E40E9459162B013C01D5011C96EB
:1015A0006D917C911D97CF56DF4FE881F981C1592C
:1015B000D0406E1B7F0B072E000C880B990B0E94EE
:1015C000FA159B01AC01C301B2010E948A18D50132
:1015D00014966D937D938D939C931797B401C501D9
:1015E00001960E94EB00B2E02B0E311CE0E1EE0E02
:1015F000F11C96CF6DED71E0C7010E94B81B892BDD
:1016000009F07AC0D70118968C91833509F021C46E
:1016100065ED71E089EB93E00E94FA11C70109962C
:101620000E94A1155C01AA0CBB1CF801EA0DFB1D70
:10163000818D928D28E0FC013A96DE011196019091
:101640000D922A95E1F7FC01628473848484958469
:10165000C60163E0880F991F6A95E1F70797E80EC6
:10166000F91E21E0C21AD10882E0C816D10404F1A3
:10167000F701319780818D3469F08D36A9F462EEDF
:1016800071E089EB93E00E940E12C7010E94A11540
:101690003C010AC064E272E089EB93E00E94FA1117
:1016A000C7010E94A1154C01F8E0EF1AF108D9CF4B
:1016B000F801EA0DFB1D818D928D7A8269829C82F0
:1016C0008B8228E0FE013196DE01A757BF4F0190C3
:1016D0000D922A95E1F7C757DF4F79826882C95882
:1016E000D040C557DF4F99828882CB58D04028E040
:1016F000FE01E757FF4F81C06CEE71E0C7010E9409
:10170000B81B892B09F082C0D70118968C918335BC
:1017100009F09FC364EE71E089EB93E00E94FA1137
:10172000C70109960E94A1155C01AA0CBB1CF80117
:10173000EA0DFB1D818D928D28E0FC013A96DE01B9
:10174000119601900D922A95E1F7FC016684778449
:1017500080889188C60143E0880F991F4A95E1F778
:101760000797E80EF91E21E0C21AD10882E0C816D8
:10177000D10404F1F701319780818D3469F08D3601
:10178000A9F462EE71E089EB93E00E940E12C701AA
:101790000E94A1153C010AC064E272E089EB93E06B
:1017A0000E94FA11C7010E94A1154C01F8E0EF1A3E
:1017B000F108D9CFF801EA0DFB1D818D928D7E8253
:1017C0006D8298868F8228E0FE013196DE01AF5748
:1017D000BF4F01900D922A95E1F7CB57DF4F7982E9
:1017E0006882C558D040C957DF4F99828882C75850
:1017F000D04028E0FE01EF57FF4FDC011A96019020
:101800000D922A95E1F70E94B50123C369EF71E0BB
:10181000C7010E94B81B892BA1F461EF71E089EB2D
:1018200093E00E94FA11D70118968C91863409F042
:1018300010C3C70109960E94A115F80192A781A7BC
:1018400008C366E072E0C7010E94B81B892B09F04B
:1018500052C06EEF71E089EB93E00E94FA116BE0E9
:1018600072E089EB93E00E94FA1188E1EEE0F1E08A
:10187000D801939601900D928A95E1F77801F9E1EC
:10188000EF0EF11C580123E2A20EB11C28E0D22E6B
:10189000D7018D919D917D01E6E0F1E0DE01119689
:1018A0002D2D01900D922A95E1F7FE013196DC0174
:1018B0001A962D2D01900D922A95E1F70E94B501FF
:1018C000EA14FB0429F7F80127A130A545A156A188
:1018D00063A174A1C8010E945302D8019B964D9147
:1018E0005D916D917C919E9791968D919C9192972F
:1018F0000E94D301AEC26EE272E0C7010E94B81B23
:10190000892B51F466E272E089EB93E00E94FA11B0
:10191000C8010E94BF079DC26BE372E0C7010E942D
:10192000B81B892B09F05AC063E372E089EB93E09E
:101930000E94FA116801B3E2CB0ED11CE12CF12C0C
:10194000F60161916F01C701CA56DF4F6883C6591E
:10195000D0400E941717CA56DF4F6881C659D04041
:10196000681719F0C7010E941F17FFEFEF1AFF0A4F
:1019700028E1E216F10421F7580189E1A80EB11C13
:1019800000E210E0D501CD90DD905D017801B8E076
:10199000EB1AF108EAE0CE0ED11CD6016D916D0173
:1019A000C701CA56DF4F6883C659D0400E94171737
:1019B000CA56DF4F6881C659D040681719F0C70171
:1019C0000E941F17BFEFEB1AFB0AE016F10629F77A
:1019D000085F1F4F08341105A9F63BC268E472E0A6
:1019E000C7010E94B81B892BD9F460E472E089EB2F
:1019F00093E00E94FA117801E9E1EE0EF11C0D5D11
:101A00001F4FD7018D919D917D01FC01448155812E
:101A1000668177810E94D301E016F10691F719C221
:101A200065E572E0C7010E94B81B892BA1F46DE443
:101A300072E089EB93E00E94FA11D80115962D917E
:101A40003C91169713964D915C91149711966D9158
:101A50007C911297FBC162E672E0C7010E94B81B3D
:101A6000892B09F008C16AE572E089EB93E00E94D6
:101A7000FA1167E672E089EB93E00E940E12F8011A
:101A800080A58F9387A18F9386A18F9385A18F9334
:101A900084A18F9383A18F9389E792E09F938F9383
:101AA000CE0101967C019F938F930E94C81BB701C2
:101AB00089EB93E00E94FA1164E872E089EB93E00D
:101AC0000E940E12D80199964D915C919A97052E1D
:101AD000000C660B770B0FB6F894DEBF0FBECDBFC0
:101AE00077FF32C08DE2CD56DF4F4883C359D040D7
:101AF000CC56DF4F5883C459D040CA56DF4F688355
:101B0000C659D040CB56DF4F7883C559D0400E948C
:101B1000A610CD56DF4F4881C359D040CC56DF4F79
:101B20005881C459D040CA56DF4F6881C659D04049
:101B3000CB56DF4F7881C559D04070956095509550
:101B400041955F4F6F4F7F4F2AE089EB93E00E94F2
:101B5000C61063E273E089EB93E00E94B1106BE87A
:101B600072E089EB93E00E940E12D8019B966D9172
:101B70007D918D919C919E970E94E91164E972E09C
:101B800089EB93E00E940E12F80167A570A981A964
:101B900092A942E00E940F1169EA72E089EB93E09A
:101BA0000E940E12D801D3966D917D918D919C91DA
:101BB000D69742E00E940F1169EA72E089EB93E048
:101BC0000E940E12F80167A970AD81AD92AD42E09E
:101BD0000E940F1162E872E089EB93E00E94FA1113
:101BE0005801F9E1AF0EB11CC12CD12C9BEA892E12
:101BF00092E0992E09ED12E0DF92CF929F928F92A0
:101C0000FF92EF920E94C81BB70189EB93E00E94FC
:101C10000E1260EB72E089EB93E00E940E12D50188
:101C2000ED91FD915D0181898F9380898F938785E7
:101C30008F9386858F9385858F9384858F938385F6
:101C40008F9382858F931F930F93FF92EF920E9441
:101C5000C81BB70189EB93E00E94FA11BFEFCB1AC2
:101C6000DB0A0FB6F894DEBF0FBECDBFF5E0CF168E
:101C7000D10411F6EEC06FEE72E0C7010E94B81BEE
:101C8000892B09F0CFC067EE72E089EB93E00E94E8
:101C9000FA116BE672E089EB93E00E940E12D80114
:101CA00016968C9116978F9315968C9115978F9306
:101CB00014968C9114978F9313968C9113978F93FE
:101CC00012968C9112978F9311968C918F9389E72E
:101CD00092E09F938F93FE0131966F01FF93EF93F4
:101CE0000E94C81BB60189EB93E00E94FA116BE8D1
:101CF00072E089EB93E00E940E12D8019196ED916B
:101D0000FC91929764817581868197810E94E91187
:101D1000075E1F4F0FB6F894DEBF0FBECDBFE12C9C
:101D2000F12C8BEAA82E82E0B82EFF92EF92BF92A0
:101D3000AF92DF92CF920E94C81BB60189EB93E06D
:101D40000E940E1264EF72E089EB93E00E940E1283
:101D50004801D801ED91FC9140855185052E000C7C
:101D6000660B770B0F900F900F900F900F900F90C6
:101D700077FF32C08DE2CD56DF4F4883C359D04044
:101D8000CC56DF4F5883C459D040CA56DF4F6883C2
:101D9000C659D040CB56DF4F7883C559D0400E94FA
:101DA000A610CD56DF4F4881C359D040CC56DF4FE7
:101DB0005881C459D040CA56DF4F6881C659D040B7
:101DC000CB56DF4F7881C559D040709560955095BE
:101DD00041955F4F6F4F7F4F2AE089EB93E00E9460
:101DE000C61069EA72E089EB93E00E940E120E5F62
:101DF0001F4FD401ED91FC9164817581868197819B
:101E000042E00E940F1162E872E089EB93E00E94C9
:101E1000FA11BFEFEB1AFB0AE5E0EE16F10409F048
:101E200084CF17C064EA71E0C7010E94B81B892BF8
:101E300081F4D80197962D913C91989795964D9164
:101E40005C91969793966D917C919497C8010E94AE
:101E50005302CA56DF4F0FB6F894DEBF0FBECDBF98
:101E6000DF91CF911F910F91FF90EF90DF90CF9076
:101E7000BF90AF909F908F907F906F905F904F90AA
:101E80003F902F900895E9EBF3E0A089B18982E0BB
:101E90008C93A485B5851C92A685B78587E68C931F
:101EA000108EA489B58986E08C93A289B3898C9120
:101EB00080618C93A289B3898C9188608C93A2896C
:101EC000B3898C9180688C930288F389E02D80819E
:101ED0008F7D80830895CF92DF92EF92FF920F93D0
:101EE0001F93CF93DF936C017A018B01C0E0D0E0A8
:101EF000CE15DF0589F0D8016D918D01D601ED91E8
:101F0000FC910190F081E02DC6010995892B11F417
:101F10007E0102C02196ECCFC701DF91CF911F91C6
:101F20000F91FF90EF90DF90CF900895089580E09B
:101F300090E00895FC01538D448D252F30E0842FCF
:101F400090E0821B930B541710F0CF9608950197E1
:101F50000895FC01918D828D981761F0828DDF01CB
:101F6000A80FB11D5D968C91928D9F5F9F73928F8C
:101F700090E008958FEF9FEF0895FC01918D828D81
:101F8000981731F0828DE80FF11D858D90E008954E
:101F90008FEF9FEF0895FC01918D228D892F90E0A6
:101FA000805C9F4F821B91098F739927089589EB5D
:101FB00093E00E94CB0F21E0892B09F420E0822FCF
:101FC0000895FC01848DDF01A80FB11DA35ABF4FF6
:101FD0002C91848D90E001968F739927848FA68928
:101FE000B7892C93A089B1898C9180648C93938D4F
:101FF000848D981306C00288F389E02D80818F7D3F
:1020000080830895EF92FF920F931F93CF93DF93F6
:10201000EC0181E0888F9B8D8C8D981305C0E88939
:10202000F989808185FD24C0F62E0B8D10E00F5FAD
:102030001F4F0F731127E02E8C8DE8120CC00FB6C6
:1020400007FCFACFE889F989808185FFF5CFCE01B9
:102050000E94E10FF1CF8B8DFE01E80FF11DE35AD5
:10206000FF4FF0820B8FEA89FB898081806207C075
:10207000EE89FF896083E889F989808180648083A3
:1020800081E090E0DF91CF911F910F91FF90EF9051
:102090000895CF93DF93EC01888D8823C9F0EA89F6
:1020A000FB89808185FD05C0A889B9898C9186FD51
:1020B0000FC00FB607FCF5CF808185FFF2CFA8894E
:1020C000B9898C9185FFEDCFCE010E94E10FE7CF5A
:1020D000DF91CF9108950E94D70F81110C9445088C
:1020E00008952FB7F8946091A6037091A70380918B
:1020F000A8039091A9032FBF08958F929F92AF924A
:10210000BF92CF92DF92EF92FF926B017C010E940F
:1021100071104B015C01C60ED71EE81EF91E0E940D
:102120007110681579058A059B0528F0C616D70633
:10213000E806F906A0F7FF90EF90DF90CF90BF90F0
:10214000AF909F908F9008950E94B31BE091B903C8
:10215000F091BA030190F081E02D682F89EB93E0B4
:1021600009946115710579F0FB0101900020E9F7F0
:102170003197AF01461B570BDC01ED91FC910280BA
:10218000F381E02D099480E090E008954F925F92F2
:102190006F927F92EF92FF920F931F93CF93DF93F3
:1021A000CDB7DEB7A1970FB6F894DEBF0FBECDBF97
:1021B0007C01FA01CB0119A2223008F42AE08E0139
:1021C0000F5D1F4F422E512C612C712CBF01A301BA
:1021D00092010E942D17F901CA01015011096A30BC
:1021E00014F4605D01C0695CD8016C93232B242B2F
:1021F000252B61F7B801C7010E94B110A1960FB657
:10220000F894DEBF0FBECDBFDF91CF911F910F912C
:10221000FF90EF907F906F905F904F9008954F9256
:102220005F926F927F928F929F92AF92BF92CF9266
:10223000DF92EF92FF926B017C01B42E9B01AC0107
:102240000E940F1A882319F066E571E027C0260165
:102250003701E89477F82FEF3FEF4FE75FE7C301CF
:10226000B2010E940F1A81110DC02FEF3FEF4FE70F
:102270005FE7C301B2010E94F31518161CF46CE06D
:1022800073E00CC02FEF3FEF4FE75FE4C701B601EB
:102290000E94B819181694F460E173E089EB93E09A
:1022A000FF90EF90DF90CF90BF90AF909F908F9076
:1022B0007F906F905F904F900C94B1102FEF3FEF95
:1022C0004FE75FECC701B6010E94F31587FDE4CF2D
:1022D00020E030E0A901C701B6010E94F31587FF95
:1022E00009C08DE20E94A6104C01F7FAF094F7F8AD
:1022F000F09402C0812C912CA12C60E070E080E071
:102300009FE3AB1441F020E030E040E251E40E9452
:102310008A18A394F6CF9B01AC01C701B6010E94B5
:10232000A7172B013C010E9403196B017C010E943D
:10233000F8159B01AC01C301B2010E94A6172B0145
:102340003C012AE0B701A60189EB93E00E94C61088
:102350007C01E80CF91CBB2029F08EE20E94A6103B
:10236000E80EF91EDB2CDD2031F120E030E040E208
:1023700051E4C301B2010E9459162B013C010E9495
:1023800003194B01A12CB12C2AE0B501A40189EB62
:1023900093E00E94C610E80EF91EC501B4010E9428
:1023A000F8159B01AC01C301B2010E94A6172B01D5
:1023B0003C01DA94D8CFC701FF90EF90DF90CF9027
:1023C000BF90AF909F908F907F906F905F904F9055
:1023D0000895CF93DF9342E00E940F11EC0163E276
:1023E00073E089EB93E00E94B1108C0F9D1FDF9189
:1023F000CF9108950F931F93CF93DF93EC010E9429
:10240000B1108C0163E273E0CE010E94B110800F25
:10241000911FDF91CF911F910F9108950C94B110EE
:102420001F920F920FB60F9211242F933F934F9349
:102430005F936F937F938F939F93AF93BF93EF932C
:10244000FF9389EB93E00E94E10FFF91EF91BF9121
:10245000AF919F918F917F916F915F914F913F913C
:102460002F910F900FBE0F901F9018951F920F92F3
:102470000FB60F9211242F938F939F93EF93FF9397
:10248000E091C903F091CA038081E091CF03F091FC
:10249000D00382FD12C090818091D2038F5F8F7331
:1024A0002091D303821751F0E091D203F0E0E7547A
:1024B000FC4F958F8093D20301C08081FF91EF91F3
:1024C0009F918F912F910F900FBE0F901F90189595
:1024D00090E0FC01E459FE4F3491FC01E85AFE4FB4
:1024E0002491FC01EC5BFE4FE491EE2309F43BC028
:1024F000332339F1333091F038F43130A9F03230F0
:1025000001F584B58F7D12C0373091F03830A1F0DD
:102510003430B9F4809180008F7D03C080918000B9
:102520008F77809380000DC084B58F7784BD09C0FC
:102530008091B0008F7703C08091B0008F7D809331
:10254000B000F0E0EE0FFF1FE65CFE4FA591B491E6
:102550008FB7F894EC91611103C020952E2301C030
:102560002E2B2C938FBF0895E9EBF3E01382128298
:1025700088EE93E0A0E0B0E084839583A683B783E0
:1025800082E391E09183808385EC90E09587848756
:1025900084EC90E09787868780EC90E0918B808B2D
:1025A00081EC90E0938B828B82EC90E0958B848B16
:1025B00086EC90E0978B868B118E128E138E148E84
:1025C000E8E6F4E0168217821086118612861386DA
:1025D0001486158616861786108A118A128A138A1F
:1025E000148A158A0895CF93DF93CDB7DEB7289765
:1025F0000FB6F894DEBF0FBECDBF789484B582606D
:1026000084BD84B5816084BD85B5826085BD85B596
:10261000816085BD80916E00816080936E00109214
:10262000810080918100826080938100809181008F
:102630008160809381008091800081608093800020
:102640008091B10084608093B1008091B00081607E
:102650008093B00080917A00846080937A008091AA
:102660007A00826080937A0080917A008160809302
:102670007A0080917A00806880937A001092C1007D
:102680001092AC041092AD041092AE041092AF04FC
:1026900010926A0410926B0410926C0410926D04F4
:1026A00068EB7BE080E090E00E947D1089EB93E096
:1026B0009093AB048093AA040E94430F0E94711070
:1026C00060936A0470936B0480936C0490936D0420
:1026D00064E173E08091AA049091AB040E940E1211
:1026E0006AE070E080E090E00E947D10BB24B3942B
:1026F000B0927E040E94430F88E0E6E2F1E0DE0142
:10270000119601900D928A95E1F782E190E00E9486
:10271000861A6C01E980FA800B811C812D813E8133
:102720004F81588562E00E946907D0925704C09299
:10273000560488E0E6E2F1E0DE01119601900D9288
:102740008A95E1F782E190E00E94861A6C01E980A7
:10275000FA800B811C812D813E814F81588565E077
:102760000E946907D0925904C092580488E0E6E2BA
:10277000F1E0DE01119601900D928A95E1F782E178
:1027800090E00E94861A6C01E980FA800B811C811E
:102790002D813E814F81588566E00E946907D09265
:1027A0005B04C0925A0488E0E6E2F1E0DE01119693
:1027B00001900D928A95E1F782E190E00E94861ADD
:1027C0006C01E980FA800B811C812D813E814F8153
:1027D000588569E00E946907D0925D04C0925C044C
:1027E00088E0E6E2F1E0DE01119601900D928A9513
:1027F000E1F782E190E00E94861A6C01E980FA809C
:102800000B811C812D813E814F8158856AE00E9499
:102810006907D0925F04C0925E048BE390E00E944F
:10282000861A8C018091560490915704F801928F7A
:10283000818F8091580490915904948F838F809157
:102840005A0490915B04968F858F80915C049091DF
:102850005D0490A3878FD2A2C1A2C8010E94BF07C6
:10286000F801B0821093B8030093B7038AE090E0B8
:10287000A0E0B0E08093AC039093AD03A093AE03CF
:10288000B093AF0384E894E09093AB038093AA03E2
:10289000809170008E7F809370008091B0008C7F5B
:1028A0008093B0008091B100877F8093B1008091C8
:1028B000B6008F7D8093B600809170008D7F8093ED
:1028C00070008091B10084608093B1008091B1006C
:1028D0008C7F8093B10086E090E09093B103809369
:1028E000B0031092B3031092B4031092B503109288
:1028F000B6031092B2038091B0039091B10380931C
:10290000B2008091700081608093700084EF882E07
:1029100099249394A12CB12C0E947110672B682BE1
:10292000692B41F40E947110623071058105910597
:1029300008F404C10E9471106093640470936504EC
:102940008093660490936704009160041091610481
:102950002091620430916304601771078207930726
:1029600040F46093600470936104809362049093D8
:10297000630400916004109161042091620430911D
:1029800063046B017C01C01AD10AE20AF30A9701C1
:1029900086010A3F11052105310508F4CFC0609377
:1029A0006004709361048093620490936304809246
:1029B000760490927704A0927804B09279041092F1
:1029C0007A0410927B0410927C0410927D04809112
:1029D0006E0490916F04A0917004B0917104809383
:1029E000720490937304A0937404B09375040E94CE
:1029F000711060936E0470936F04809370049093D1
:102A000071040E94711060936A0470936B04809348
:102A10006C0490936D040E9471106B017C0166E25E
:102A200073E08091AA049091AB040E940E122AE0F8
:102A300041E050E060E070E08091AA049091AB0426
:102A40000E94C6106DE273E08091AA049091AB04DD
:102A50000E940E122AE0B701A6018091AA0490916B
:102A6000AB040E94C6106FE273E08091AA049091BB
:102A7000AB040E940E1280916E0490916F04A0919D
:102A80007004B0917104B701A601481B590B6A0B81
:102A90007B0B2AE08091AA049091AB040E94C6109F
:102AA0006FE273E08091AA049091AB040E940E1231
:102AB00040916E0450916F046091700470917104A4
:102AC0008091720490917304A0917404B091750484
:102AD000481B590B6A0B7B0B2AE08091AA0490914A
:102AE000AB040E94C61061E373E08091AA04909148
:102AF000AB040E940E120E947110AB01BC012AE0CF
:102B00008091AA049091AB040E94C61063E373E025
:102B10008091AA049091AB040E94FA1165E070E0E4
:102B200080E090E00E947D100E94711060936E041E
:102B300070936F0480937004909371040E946B10E3
:102B4000EBCEFC0188279927E89421912032E9F304
:102B5000293010F02E30C8F32B3241F02D3239F4E9
:102B6000689404C00E94EB15820F911D219120539F
:102B70002A30C0F31EF4909581959F4F089540EB45
:102B800054E00E94C4150895FA01A191B081009704
:102B900019F41097E1F0CD01DC01CD010D9000207A
:102BA00011F4C00113C0FB012191222319F020155B
:102BB000D9F7F3CFFB012191201519F41E9211963C
:102BC00006C02223C1F70D900020A1F7D001FA0121
:102BD000A193B08308957AE0979F902D879F802DD1
:102BE000910D112408950E94351608F481E008958E
:102BF000E89409C097FB3EF4909580957095619597
:102C00007F4F8F4F9F4F9923A9F0F92F96E9BB274C
:102C10009395F695879577956795B795F111F8CFC8
:102C2000FAF4BB0F11F460FF1BC06F5F7F4F8F4F33
:102C30009F4F16C0882311F096E911C0772321F029
:102C40009EE8872F762F05C0662371F096E8862FC1
:102C500070E060E02AF09A95660F771F881FDAF718
:102C6000880F9695879597F90895990F0008550F45
:102C7000AA0BE0E8FEEF16161706E807F907C0F002
:102C800012161306E407F50798F0621B730B840B0A
:102C9000950B39F40A2661F0232B242B252B21F4E4
:102CA00008950A2609F4A140A6958FEF811D811D84
:102CB00008950E946C160C94DD160E94CF1638F011
:102CC0000E94D61620F0952311F00C94C6160C9491
:102CD000CC1611240C9411170E94EE1670F3959FD8
:102CE000C1F3950F50E0551F629FF001729FBB2703
:102CF000F00DB11D639FAA27F00DB11DAA1F649F9F
:102D00006627B00DA11D661F829F2227B00DA11D51
:102D1000621F739FB00DA11D621F839FA00D611DD7
:102D2000221F749F3327A00D611D231F849F600DF8
:102D3000211D822F762F6A2F11249F5750409AF021
:102D4000F1F088234AF0EE0FFF1FBB1F661F771FAD
:102D5000881F91505040A9F79E3F510580F00C9478
:102D6000C6160C9411175F3FE4F3983ED4F3869592
:102D700077956795B795F795E7959F5FC1F7FE2B18
:102D8000880F911D9695879597F9089597F99F67F4
:102D900080E870E060E008959FEF80EC08950024E3
:102DA0000A941616170618060906089500240A94B0
:102DB00012161306140605060895092E0394000C36
:102DC00011F4882352F0BB0F40F4BF2B11F460FFC5
:102DD00004C06F5F7F4F8F4F9F4F089557FD9058EE
:102DE000440F551F59F05F3F71F04795880F97FBCF
:102DF000991F61F09F3F79F0879508951216130689
:102E00001406551FF2CF4695F1DF08C016161706B7
:102E10001806991FF1CF86957105610508940895EC
:102E2000E894BB2766277727CB0197F90895F9998E
:102E3000FECF92BD81BDF89A992780B50895262FBF
:102E4000F999FECF1FBA92BD81BD20BD0FB6F8948F
:102E5000FA9AF99A0FBE01960895A1E21A2EAA1BBA
:102E6000BB1BFD010DC0AA1FBB1FEE1FFF1FA2173A
:102E7000B307E407F50720F0A21BB30BE40BF50B37
:102E8000661F771F881F991F1A9469F760957095C0
:102E9000809590959B01AC01BD01CF0108952F92C3
:102EA0003F924F925F926F927F928F929F92AF92DA
:102EB000BF92CF92DF92EF92FF920F931F93CF9327
:102EC000DF93CDB7DEB7CA1BDB0B0FB6F894DEBFBE
:102ED0000FBECDBF09942A88398848885F846E84E4
:102EE0007D848C849B84AA84B984C884DF80EE802E
:102EF000FD800C811B81AA81B981CE0FD11D0FB637
:102F0000F894DEBF0FBECDBFED010895A29FB001C2
:102F1000B39FC001A39F700D811D1124911DB29F0D
:102F2000700D811D1124911D08959F939F770E941C
:102F300032190F90002042F49058A2EA2AED3FE0A7
:102F400049E450E40E94BE170C94DD165058BB278C
:102F5000AA270E94BE170C94DD160E94CF1638F0E7
:102F60000E94D61620F039F49F3F19F426F40C94F1
:102F7000CC160EF4E095E7FB0C94C616E92F0E94E0
:102F8000EE1658F3BA17620773078407950720F007
:102F900079F4A6F50C9410170EF4E0950B2EBA2FC9
:102FA000A02D0B01B90190010C01CA01A00111244F
:102FB000FF27591B99F0593F50F4503E68F11A16FB
:102FC000F040A22F232F342F4427585FF3CF46958C
:102FD00037952795A795F0405395C9F77EF41F16AE
:102FE000BA0B620B730B840BBAF09150A1F0FF0F78
:102FF000BB1F661F771F881FC2F70EC0BA0F621F64
:10300000731F841F48F4879577956795B795F79553
:103010009E3F08F0B0CF9395880F08F09927EE0FE8
:103020009795879508950E94CF1660F080E891E00B
:1030300009F49EEF0E94D61628F040E851E071F4A2
:103040005EEF0CC00C94CC160C941017E92FE078AE
:103050000E94EE1640F3092E052AB1F32617370712
:103060004807590738F00E2E07F8E02569F0E025EB
:10307000E0640AC0EF6307F8009407FADB01B901C6
:103080009D01DC01CA01AD01EF930E94A1180E94CD
:10309000DD160E9456185F91552339F02BED3FE065
:1030A00049E450FD49EC0C94A7170895DF93DD2700
:1030B000B92FBF7740E85FE31616170648075B078E
:1030C00018F4D92F0E94BD199F938F937F936F930C
:1030D0000E940B1AECEBF0E00E9452190E94DD16E0
:1030E0002F913F914F915F910E946C16DD2351F01B
:1030F0009058A2EA2AED3FE049EC5FE3D0785D27E3
:103100000E94BE17DF910C94DD160E947B19E39597
:103110000C94A4190E949E180C94DD160E94D616D9
:1031200058F00E94CF1640F029F45F3F29F00C942C
:10313000C61651110C9411170C94CC160E94EE1661
:1031400068F39923B1F3552391F3951B550BBB27D6
:10315000AA2762177307840738F09F5F5F4F220F1B
:10316000331F441FAA1FA9F335D00E2E3AF0E0E812
:1031700032D091505040E695001CCAF72BD0FE2F5C
:1031800029D0660F771F881FBB1F261737074807F0
:10319000AB07B0E809F0BB0B802DBF01FF279358A8
:1031A0005F4F3AF09E3F510578F00C94C6160C9490
:1031B00011175F3FE4F3983ED4F3869577956795B2
:1031C000B795F7959F5FC9F7880F911D96958795DD
:1031D00097F90895E1E0660F771F881FBB1F6217FC
:1031E00073078407BA0720F0621B730B840BBA0BBA
:1031F000EE1F88F7E09508950E9403196894B111B5
:103200000C94111708950E94F61688F09F5798F0B5
:10321000B92F9927B751B0F0E1F0660F771F881FDB
:10322000991F1AF0BA95C9F714C0B13091F00E94F5
:103230001017B1E008950C941017672F782F882786
:10324000B85F39F0B93FCCF3869577956795B3951C
:10325000D9F73EF490958095709561957F4F8F4F8B
:103260009F4F0895DF93CF931F930F938B01EC0132
:10327000E9EEF0E00E9452190E94DD169801AE01BD
:103280008B01EC0160E070E080E89FE30E94A617EC
:103290000E94CB199801AE010F911F91CF91DF9140
:1032A0000C946C16DF93CF931F930F93FF92EF92C2
:1032B000DF927B018C01689406C0DA2EEF010E9438
:1032C0006C16FE01E894A591259135914591559193
:1032D000A6F3EF010E94BE17FE019701A801DA9440
:1032E00069F7DF90EF90FF900F911F91CF91DF91E1
:1032F00008950C94CC160E94F616D8F3E894E0E0FA
:10330000BB279F57F0F02AED3FE049EC06C0EE0FD7
:10331000BB0F661F771F881F28F0B23A620773073A
:10332000840728F0B25A620B730B840BE3959A95CD
:1033300072F7803830F49A95BB0F661F771F881F8D
:10334000D2F790480C94161AEF93E0FF07C0A2EA58
:103350002AED3FE049EC5FEB0E94BE170E94DD16AC
:103360000F90039401FC9058E1E1F1E00C94291ACC
:103370000E94351608F48FEF08959B01AC0160E0C0
:1033800070E080E89FE30C948A1819F416F40C940A
:10339000CC160C94141A0E94F616B8F39923C9F3AC
:1033A000B6F39F57550B87FF0E94221A0024A0E610
:1033B00040EA900180585695979528F4805C660FF6
:1033C000771F881F20F026173707480730F4621B45
:1033D000730B840B202931294A2BA6951794079447
:1033E000202531254A2758F7660F771F881F20F0C0
:1033F00026173707480730F4620B730B840B200D38
:10340000311D411DA09581F7B901842F9158880F76
:103410009695879508959B01AC010C9459160E94CE
:103420003516880B990B08959F3F31F0915020F489
:10343000879577956795B795880F911D9695879590
:1034400097F9089591505040660F771F881FD2F763
:1034500008959F938F937F936F93FF93EF939B01B7
:10346000AC010E945916EF91FF910E9452192F91C1
:103470003F914F915F910C945916991B79E004C0CC
:10348000991F961708F0961B881F7A95C9F78095A3
:10349000089597FB072E16F4009407D077FD09D006
:1034A0000E94721A07FC05D03EF4909581959F4FBB
:1034B0000895709561957F4F0895EE0FFF1F059059
:1034C000F491E02D09940E948617332312F48A1B8D
:1034D0009B0B0C946D1A0E948617B7FF0895821BF0
:1034E000930B0895AA1BBB1B51E107C0AA1FBB1F6A
:1034F000A617B70710F0A61BB70B881F991F5A9580
:10350000A9F780959095BC01CD010895CF93DF93E5
:103510008230910510F482E090E0E091B404F091E3
:10352000B50420E030E0C0E0D0E0309711F14081F8
:10353000518148175907C0F04817590761F4828133
:103540009381209719F09B838A832BC09093B504B5
:103550008093B40426C02115310519F04217530792
:1035600018F49A01BE01DF01EF010280F381E02D22
:10357000DCCF2115310509F1281B390B2430310529
:1035800090F412968D919C9113976115710521F01D
:10359000FB019383828304C09093B5048093B404A9
:1035A000FD01329644C0FD01E20FF31F8193919318
:1035B000225031092D933C933AC02091B2043091AE
:1035C000B304232B41F42091020130910301309385
:1035D000B3042093B2042091000130910101211520
:1035E000310541F42DB73EB74091040150910501DA
:1035F000241B350BE091B204F091B304E217F307FA
:10360000A0F42E1B3F0B2817390778F0AC014E5F52
:103610005F4F2417350748F04E0F5F1F5093B304D8
:103620004093B2048193919302C0E0E0F0E0CF01B7
:10363000DF91CF9108950F931F93CF93DF9300975E
:1036400009F48CC0FC013297138212820091B404F9
:103650001091B5040115110581F420813181820F8B
:10366000931F2091B2043091B3042817390779F5DC
:10367000F093B304E093B20471C0D80140E050E08D
:10368000AE17BF0750F412962D913C911397AD01E0
:103690002115310509F1D901F3CF9D01DA013383F9
:1036A000228360817181860F971F8217930769F4C7
:1036B000EC0128813981260F371F2E5F3F4F318360
:1036C00020838A819B8193838283452B29F4F09305
:1036D000B504E093B40442C01396FC93EE931297A2
:1036E000ED01499159919E01240F351FE217F3070F
:1036F00071F480819181840F951F029611969C939D
:103700008E938281938113969C938E931297E0E01F
:10371000F0E0D80112968D919C911397009719F0C3
:10372000F8018C01F6CF8D919C9198012E5F3F4F4F
:10373000820F931F2091B2043091B30428173907E8
:1037400069F4309729F41092B5041092B40402C0C1
:10375000138212821093B3040093B204DF91CF91CD
:103760001F910F91089581E090E0F8940C94691EE8
:10377000FB01DC018D91019080190110D9F3990BA7
:103780000895FB01DC0101900D920020E1F70895FE
:10379000AEE0B0E0EEECFBE10C945D170D891E8904
:1037A00086E08C831A8309838FEF9FE79E838D8346
:1037B000AE01475E5F4F6F89788DCE0101960E9402
:1037C000EB1B2F813885F801E20FF31F10822E9634
:1037D000E4E00C947917ACE0B0E0E1EFFBE10C948D
:1037E0004F177C016B018A01FC01178216828381CD
:1037F00081FFBDC1CE0101964C01F7019381F60115
:1038000093FD859193FF81916F01882309F4ABC1EA
:10381000853239F493FD859193FF81916F01853253
:1038200029F4B70190E00E94D31DE7CF512C312C31
:1038300020E02032A0F48B3269F030F4803259F06D
:10384000833269F420612CC08D3239F0803339F431
:10385000216026C02260246023C0286021C027FD8B
:1038600027C030ED380F3A3078F426FF06C0FAE072
:103870005F9E300D1124532E13C08AE0389E300D08
:103880001124332E20620CC08E3221F426FD6BC130
:10389000206406C08C3611F4206802C0883641F4DA
:1038A000F60193FD859193FF81916F018111C1CF45
:1038B000982F9F7D9554933028F40C5F1F4FFFE3A2
:1038C000F9830DC0833631F0833771F0833509F009
:1038D0005BC022C0F801808189830E5F1F4F4424A2
:1038E0004394512C540115C03801F2E06F0E711C45
:1038F000F801A080B18026FF03C0652D70E002C0F2
:103900006FEF7FEFC5012C870E94C81D2C0183013A
:103910002C852F77222E17C03801F2E06F0E711C14
:10392000F801A080B18026FF03C0652D70E002C0C1
:103930006FEF7FEFC5012C870E94BD1D2C012C85E8
:103940002068222E830123FC1BC0832D90E04816A3
:103950005906B0F4B70180E290E00E94D31D3A947A
:10396000F4CFF50127FC859127FE81915F01B70116
:1039700090E00E94D31D31103A94F1E04F1A5108A3
:103980004114510471F7E5C0843611F0893639F5D8
:10399000F80127FF07C060817181828193810C5FEC
:1039A0001F4F08C060817181072E000C880B990B96
:1039B0000E5F1F4F2F76722E97FF09C0909580954E
:1039C000709561957F4F8F4F9F4F2068722E2AE030
:1039D00030E0A4010E940B1EA82EA81844C0853711
:1039E00029F42F7EB22E2AE030E025C0F22FF97F95
:1039F000BF2E8F36C1F018F4883579F0B4C0803707
:103A000019F0883721F0AFC02F2F2061B22EB4FEFD
:103A10000DC08B2D8460B82E09C024FF0AC09F2FD3
:103A20009660B92E06C028E030E005C020E130E005
:103A300002C020E132E0F801B7FE07C06081718169
:103A4000828193810C5F1F4F06C06081718180E08D
:103A500090E00E5F1F4FA4010E940B1EA82EA81815
:103A6000FB2DFF777F2E76FE0BC0372D3E7FA514F2
:103A700050F474FE0AC072FC08C0372D3E7E05C0AB
:103A8000BA2C372D03C0BA2C01C0B52C34FF0DC0A1
:103A9000FE01EA0DF11D8081803311F4397E09C0E9
:103AA00032FF06C0B394B39404C0832F867809F024
:103AB000B39433FD13C030FF06C05A2CB31418F46E
:103AC000530C5B18B32CB31468F4B70180E290E098
:103AD0003C870E94D31DB3943C85F5CFB31410F4FA
:103AE0003B1801C0312C34FF12C0B70180E390E0D5
:103AF0003C870E94D31D3C8532FF17C031FD03C0B7
:103B000088E790E002C088E590E0B7010CC0832F01
:103B1000867859F031FF02C08BE201C080E237FDA8
:103B20008DE2B70190E00E94D31DA51438F4B701CF
:103B300080E390E00E94D31D5A94F7CFAA94F40139
:103B4000EA0DF11D8081B70190E00E94D31DA11004
:103B5000F5CF332009F451CEB70180E290E00E9406
:103B6000D31D3A94F6CFF7018681978102C08FEF7B
:103B70009FEF2C96E2E10C946B17FC0105906150CD
:103B800070400110D8F7809590958E0F9F1F089573
:103B9000FC016150704001900110D8F7809590951C
:103BA0008E0F9F1F08950F931F93CF93DF93FB01F9
:103BB000238121FD03C08FEF9FEF28C022FF16C095
:103BC00046815781248135814217530744F4A081EF
:103BD000B1819D012F5F3F4F318320838C932681DC
:103BE00037812F5F3F4F3783268310C0EB01092FAA
:103BF000182F0084F185E02D0995892BE1F68E813F
:103C00009F8101969F838E83812F902FDF91CF918B
:103C10001F910F910895FA01AA27283051F1203100
:103C200081F1E8946F936E7F6E5F7F4F8F4F9F4F50
:103C3000AF4FB1E03ED0B4E03CD0670F781F891F92
:103C40009A1FA11D680F791F8A1F911DA11D6A0F60
:103C5000711D811D911DA11D20D009F468943F9113
:103C60002AE0269F11243019305D3193DEF6CF0112
:103C70000895462F4770405D4193B3E00FD0C9F7D8
:103C8000F6CF462F4F70405D4A3318F0495D31FD45
:103C90004052419302D0A9F7EACFB4E0A695979598
:103CA000879577956795BA95C9F70097610571056E
:103CB00008959B01AC010A2E0694579547953795B8
:103CC0002795BA95C9F7620F731F841F951FA01D12
:063CD0000895F894FFCFF7
:103CD6000000B60480009001C409F6FFBE0064002F
:103CE60001000100140000002042000065430000AE
:103CF600A041000077439001C409F6FFBE00000012
:103D0600000002106B0F9A0F4910CB0FA90FBD0FC1
:103D1600705F6E616E0074686574615F6E616E00DF
:103D2600616C7068615F6E616E00526F626F7441A4
:103D3600726D496E697469616C697A6174696F6ED6
:103D460000E58F97E4BFA1E38197E3819FE3838733
:103D5600E383BCE382BF00436F6D6D616E642047F1
:103D6600393000580059005A0046006368616E6792
:103D7600653A500048005600436F6D6D616E6420D1
:103D8600473931006368616E67653A7000436F6D4D
:103D96006D616E642047393200436F6D6D616E64EC
:103DA6002047393300436F6D6D616E64204D3530A9
:103DB60030006D00436F6D6D616E64204D3530319E
:103DC60000436F6D6D616E64204D35303200436F78
:103DD6006D6D616E64204D36303000526F626F74C7
:103DE60041726D496E697469616C697A6174696F53
:103DF6006E5F524F4D00436F6D6D616E64204D36A0
:103E0600303100436F6D6D616E64204D3630320087
:103E1600436F6D6D616E64204D36303400436F6DB7
:103E26006D616E64204D36303500436F6D6D616E89
:103E360064204D36363600696E6974506F73287883
:103E46002C792C7A29203D20002825642C25642CE9
:103E5600256429004672616D653A0046696E67659C
:103E660072733A00287541726D2C6D41726D2C6625
:103E760041726D29203D2028002C005B25645D00E1
:103E8600286D696E50756C73652C6D617850756C14
:103E960073652C6D696E416E676C652C6D6178413A
:103EA6006E676C6529203D20002825642C25642C2E
:103EB60025642C25642900436F6D6D616E64204D69
:103EC60036363700286E6F7750756C73652C6E6FBB
:103ED60077416E676C6529203D202800696E660073
:103EE6006F766600564D4450565F317C315F564DB5
:103EF6004450560D0A00564D4450455F003A323A3A
:0A3F0600007C005F564D445045005A
:107800000C94343C0C94513C0C94513C0C94513CE1
:107810000C94513C0C94513C0C94513C0C94513CB4
:107820000C94513C0C94513C0C94513C0C94513CA4
:107830000C94513C0C94513C0C94513C0C94513C94
:107840000C94513C0C94513C0C94513C0C94513C84
:107850000C94513C0C94513C0C94513C0C94513C74
:107860000C94513C0C94513C11241FBECFEFD8E036
:10787000DEBFCDBF11E0A0E0B1E0ECE9FFE702C060
:1078800005900D92A230B107D9F712E0A2E0B1E065
:1078900001C01D92AD30B107E1F70E942D3D0C945F
:1078A000CC3F0C94003C982F959595959595959582
:1078B000905D8F708A307CF0282F295A8091C0000B
:1078C00085FFFCCF9093C6008091C00085FFFCCF60
:1078D0002093C6000895282F205DF0CF982F809127
:1078E000C00085FFFCCF9093C6000895EF92FF92F1
:1078F0000F931F93EE24FF2487018091C00087FD22
:1079000017C00894E11CF11C011D111D81E4E8164B
:1079100082E4F8068FE0080780E0180770F3E09132
:107920000401F091050109958091C00087FFE9CF1E
:107930008091C6001F910F91FF90EF9008950E94D3
:10794000763C982F8091C00085FFFCCF9093C600B5
:1079500091362CF490330CF09053892F089597555D
:10796000892F08951F930E949F3C182F0E949F3CCF
:107970001295107F810F1F9108951F93182F882350
:1079800021F00E94763C1150E1F71F9108951F935A
:10799000182F0E94763C803249F0809103018F5F5E
:1079A000809303018530C1F01F9108958091C0003C
:1079B00085FFFCCF84E18093C6008091C00085FFE5
:1079C000FCCF1093C6008091C00085FFFCCF80E102
:1079D0008093C6001F910895E0910401F091050184
:1079E00009951F9108950E94763C803241F0809164
:1079F00003018F5F80930301853081F008958091AA
:107A0000C00085FFFCCF84E18093C6008091C00058
:107A100085FFFCCF80E18093C6000895E0910401CA
:107A2000F09105010995089540E951E08823A1F0FE
:107A30002D9A28EE33E0FA013197F1F721503040CA
:107A4000D1F72D9828EE33E0FA013197F1F7215064
:107A50003040D1F7815061F708953F924F925F9285
:107A60006F927F928F929F92AF92BF92CF92DF924E
:107A7000EF92FF920F931F93CF93DF93000080E16B
:107A80008093C4001092C50088E18093C10086E015
:107A90008093C2005098589A259A81E00E94143D24
:107AA00024E1F22E9EE1E92E85E9D82E0FE0C02ECA
:107AB00010E1B12EAA24A394B1E49B2EA6E58A2E50
:107AC000F2E57F2EE0E26E2E79E4572E63E5462E36
:107AD00050E5352E0E94763C8033B1F18133B9F107
:107AE000803409F46FC0813409F476C0823409F41B
:107AF00085C0853409F488C0803531F1823521F1A3
:107B0000813511F1853509F485C0863509F48DC0BC
:107B1000843609F496C0843709F403C1853709F423
:107B200072C1863709F466C0809103018F5F80932C
:107B30000301853079F6E0910401F0910501099582
:107B40000E94763C803351F60E94F33CC3CF0E94E2
:107B5000763C803249F78091C00085FFFCCFF092DF
:107B6000C6008091C00085FFFCCF9092C600809136
:107B7000C00085FFFCCF8092C6008091C00085FFC9
:107B8000FCCF7092C6008091C00085FFFCCF609250
:107B9000C6008091C00085FFFCCF5092C600809146
:107BA000C00085FFFCCF4092C6008091C00085FFD9
:107BB000FCCF3092C6008091C00085FFFCCFB09210
:107BC000C60088CF0E94763C863808F4BDCF0E945C
:107BD000763C0E94F33C7ECF0E94763C803809F4CC
:107BE0009CC0813809F40BC1823809F43CC1883942
:107BF00009F48FC080E00E94C73C6CCF84E10E94F2
:107C0000BD3C0E94F33C66CF85E00E94BD3C0E94D3
:107C1000F33C60CF0E94763C809306010E94763C44
:107C2000809307010E94F33C55CF0E94763C80333D
:107C300009F41DC183E00E94BD3C80E00E94C73C66
:107C400049CF0E94763C809309020E94763C809343
:107C5000080280910C028E7F80930C020E94763C79
:107C6000853409F415C18091080290910902892B8D
:107C700089F000E010E00E94763CF801E85FFE4FDA
:107C800080830F5F1F4F80910802909109020817AF
:107C9000190788F30E94763C803209F045CF809125
:107CA0000C0280FF01C16091060170910701660F0F
:107CB000771F7093070160930601A0910802B091AD
:107CC00009021097C9F0E8E0F1E09B01AD014E0F09
:107CD0005F1FF999FECF32BD21BD819180BDFA9A17
:107CE000F99A2F5F3F4FE417F50799F76A0F7B1F4B
:107CF00070930701609306018091C00085FFFCCF5F
:107D0000F092C6008091C00085FFFCCFB092C60003
:107D1000E1CE83E00E94C73CDDCE82E00E94C73CFA
:107D2000D9CE0E94763C809309020E94763C8093D3
:107D300008028091060190910701880F991F909386
:107D40000701809306010E94763C853409F4A6C0A1
:107D500080910C028E7F80930C020E94763C8032D0
:107D600009F0B8CE8091C00085FFFCCFF092C6002C
:107D7000609108027091090261157105B9F140E046
:107D800050E080910C02A82FA170B82FB27011C0E2
:107D9000BB2309F45CC0E0910601F0910701319624
:107DA000F0930701E09306014F5F5F4F46175707B7
:107DB000E8F4AA2369F3F999FECF209106013091E6
:107DC000070132BD21BDF89A90B58091C00085FFB2
:107DD000FCCF9093C6002F5F3F4F30930701209355
:107DE00006014F5F5F4F4617570718F38091C00099
:107DF00085FDE5CE8091C00085FFF8CFE0CE81E023
:107E00000E94C73C67CE0E94763C803209F08CCE3F
:107E10008091C00085FFFCCFF092C6008091C00029
:107E200085FFFCCFE092C6008091C00085FFFCCFAB
:107E3000D092C6008091C00085FFFCCFC092C600E2
:107E40008091C00085FFFCCFB092C60043CEE09188
:107E50000601F091070194918091C00085FFFCCF4D
:107E60009093C6009CCF80E10E94C73C33CE0E9415
:107E7000763C0E94763C182F0E94763C112309F430
:107E800083C0113009F484C08FE00E94C73C22CE29
:107E900080910C02816080930C02E5CE80910C02EF
:107EA000816080930C0259CF809107018823880F4D
:107EB000880B8A2180930B02809106019091070123
:107EC000880F991F90930701809306018091080203
:107ED00080FF09C080910802909109020196909359
:107EE000090280930802F894F999FECF1127E091D6
:107EF0000601F0910701C8E0D1E08091080290915D
:107F00000902103091F40091570001700130D9F34B
:107F100003E000935700E89500915700017001308D
:107F2000D9F301E100935700E89509901990009169
:107F3000570001700130D9F301E000935700E89534
:107F40001395103498F011270091570001700130FB
:107F5000D9F305E000935700E895009157000170B0
:107F60000130D9F301E100935700E895329602976A
:107F700009F0C7CF103011F00296E5CF112480919F
:107F8000C00085FFB9CEBCCE8EE10E94C73CA2CD19
:0C7F900085E90E94C73C9ECDF894FFCF0D
:027F9C00800063
:040000030000780081
:00000001FF