:100000000C9488000C94B0000C94B0000C94B000D8
:100010000C94B0000C94B0000C94B0000C94B000A0
:100020000C94B0000C94B0000C94B0000C94EB0352
:100030000C94B0000C94B0000C94B0000C94B00080
:100040000C946C030C94B0000C943A030C941403BD
:100050000C94B0000C94B0000C94B0000C94B00060
:100060000C94B0000C94B000084AD73B3BCE016E14
:1000700084BCBFFDC12F3D6C74319ABD56833DDAFF
:100080003D00C77F11BED9E4BB4C3E916BAAAABE0E
:10009000000000803F072C7AA5BA6CC590DA3B932C
:1000A00065FC8BBC53F810FD3C5692834DBD879D7B
:1000B0003AB63DCBC9BF5BBE73DA0FC93F00000043
:1000C0000000240027002A0000000000250028006E
:1000D0002B000404040404040404020202020202C9
:1000E00003030303030301020408102040800102FC
:1000F000040810200102040810200000000800027B
:1001000001000003040700000000000000001111BE
:1001100011241FBECFEFD8E0DEBFCDBF12E0A0E0BC
:10012000B1E0E8EFF2E302C005900D92AC3CB107FC
:10013000D9F724E0ACECB2E001C01D92AB33B207BA
:10014000E1F710E0C8E8D0E004C02197FE010E946A
:100150009115C738D107C9F70E94190E0C947A1966
:100160000C940000CF92DF92EF92FF920F931F93B7
:10017000CF93DF936C017A018B01C0E0D0E0CE1504
:10018000DF0589F0D8016D918D01D601ED91FC91CB
:100190000190F081E02DC6010995892B11F47E01B3
:1001A00002C02196ECCFC701DF91CF911F910F9133
:1001B000FF90EF90DF90CF900895089580E090E059
:1001C0000895FC01538D448D252F30E0842F90E05D
:1001D000821B930B541710F0CF9608950197089542
:1001E000FC01918D828D981761F0828DDF01A80F3F
:1001F000B11D5D968C91928D9F5F9F73928F90E061
:1002000008958FEF9FEF0895FC01918D828D9817CF
:1002100031F0828DE80FF11D858D90E008958FEF0C
:100220009FEF0895FC01918D228D892F90E0805CD5
:100230009F4F821B91098F739927089580E593E062
:100240000E94120121E0892B09F420E0822F0895F9
:10025000FC01848DDF01A80FB11DA35ABF4F2C9163
:10026000848D90E001968F739927848FA689B78932
:100270002C93A089B1898C9180648C93938D848D0B
:10028000981306C00288F389E02D80818F7D8083DA
:100290000895EF92FF920F931F93CF93DF93EC019A
:1002A00081E0888F9B8D8C8D981305C0E889F98932
:1002B000808185FD24C0F62E0B8D10E00F5F1F4F4F
:1002C0000F731127E02E8C8DE8120CC00FB607FCBF
:1002D000FACFE889F989808185FFF5CFCE010E94A8
:1002E0002801F1CF8B8DFE01E80FF11DE35AFF4F7E
:1002F000F0820B8FEA89FB898081806207C0EE89DA
:10030000FF896083E889F98980818064808381E046
:1003100090E0DF91CF911F910F91FF90EF900895A2
:10032000CF93DF93EC01888D8823C9F0EA89FB899C
:10033000808185FD05C0A889B9898C9186FD0FC093
:100340000FB607FCF5CF808185FFF2CFA889B98968
:100350008C9185FFEDCFCE010E942801E7CFDF9180
:10036000CF91089580E090E0892B29F00E941E0132
:1003700081110C940000089590E0FC01E650FF4FBD
:100380003491FC01EA51FF4F2491FC01EE52FF4FE2
:10039000E491EE2309F43BC0332339F1333091F07B
:1003A00038F43130A9F0323001F584B58F7D12C0B8
:1003B000373091F03830A1F03430B9F480918000BA
:1003C0008F7D03C0809180008F77809380000DC067
:1003D00084B58F7784BD09C08091B0008F7703C04A
:1003E0008091B0008F7D8093B000F0E0EE0FFF1F92
:1003F000E853FF4FA591B4918FB7F894EC91611138
:1004000003C020952E2301C02E2B2C938FBF08955F
:100410002FB7F8946091F7027091F8028091F90279
:100420009091FA022FBF08950F931F93CF93DF93FC
:10043000EC0188818C3008F086C0DB01BB27FD0110
:10044000EA51FF4F8491FD01EE52FF4FA491AA2380
:10045000A1F0B0E0AA0FBB1FFD01E254FF4F0591D0
:100460001491FD01E853FF4FA591B4919FB7F89403
:10047000D801EC918E2B8C939FBF8881E82FF0E000
:10048000DF01AA0FBB1FEA0FFB1FE253FD4F6F7383
:100490009081907C692B608360E272E0FB01E41B39
:1004A000F50BAF01F7FF02C04D5F5F4F55954795C4
:1004B00055954795498340E659E0BA01621B730B95
:1004C0009B0177FF02C02D5F3F4F359527953595EE
:1004D00027952A836CE00E9485159CE0899FB001D6
:1004E000112440E050E09A01260F371FF901EE0F6A
:1004F000FF1F2E0F3F1FF901E253FD4F908196FD24
:1005000016C04F5F5F4F4C30510569F781110FC026
:100510001092800082E080938100109285001092FA
:100520008400B19A80916F00826080936F00E881AF
:10053000F0E0CF01880F991FE80FF91FE253FD4F3C
:100540008081806480838881DF91CF911F910F919A
:100550000895EF92FF920F931F93CF93DF93CDB740
:10056000DEB728970FB6F894DEBF0FBECDBFE98285
:10057000FA820B831C832D833E834F8358878C0123
:100580000F5F1F4F2091CC022C30A0F431E0320FCE
:100590003093CC02FC01218330E0F901EE0FFF1F04
:1005A0002E0F3F1FF901E253FD4F28EB3BE0328352
:1005B000218303C02FEFFC012183FC01608328E02D
:1005C000FE013196DC011A9601900D922A95E1F711
:1005D000FC012485358542855385062E000C770B5A
:1005E000C80128960FB6F894DEBF0FBECDBFDF91CD
:1005F000CF911F910F91FF90EF900C941402611511
:10060000710579F0FB0101900020E9F73197AF0106
:10061000461B570BDC01ED91FC910280F381E02D2C
:10062000099480E090E008951F920F920FB60F9208
:1006300011242F933F934F935F936F937F938F93E7
:100640009F93AF93BF93EF93FF9380E593E00E9456
:100650002801FF91EF91BF91AF919F918F917F9171
:100660006F915F914F913F912F910F900FBE0F901F
:100670001F9018951F920F920FB60F9211242F936F
:100680008F939F93EF93FF93E0916003F091610349
:100690008081E0916603F091670382FD12C0908132
:1006A000809169038F5F8F7320916A03821751F0E5
:1006B000E0916903F0E0E05BFC4F958F8093690364
:1006C00001C08081FF91EF919F918F912F910F90A9
:1006D0000FBE0F901F9018951F920F920FB60F929A
:1006E00011242F933F938F939F93AF93BF93809148
:1006F000F7029091F802A091F902B091FA023091BC
:10070000F60223E0230F2D3720F40196A11DB11D21
:1007100005C026E8230F0296A11DB11D2093F60205
:100720008093F7029093F802A093F902B093FA0233
:100730008091F2029091F302A091F402B091F5023F
:100740000196A11DB11D8093F2029093F302A09334
:10075000F402B093F502BF91AF919F918F913F91B9
:100760002F910F900FBE0F901F901895FC01908154
:100770009C3080F5818128E830E0281B310987FD15
:100780003395220F331F220F331F621773077CF03C
:10079000828128E532E0281B310987FD3395220F3D
:1007A000331F220F331F621773070CF49B01225073
:1007B0003109220F331F4FB7F894892F90E0FC01C5
:1007C000EE0FFF1F8E0F9F1FFC01E253FD4F328380
:1007D00021834FBF08951F920F920FB60F921124DD
:1007E0002F933F934F935F936F937F938F939F9339
:1007F000AF93BF93EF93FF938091CD0287FF05C026
:1008000010928500109284001BC02091CD02022E10
:10081000000C330B8091CC0290E02817390784F448
:100820008091CD02082E000C990BFC01EE0FFF1FEA
:100830008E0F9F1FFC01E253FD4F808186FD15C086
:100840008091CD028F5F8093CD022091CD02022E48
:10085000000C330B8091CC0290E028173907C4F4C8
:100860008091CD028C3064F113C08091CD02082EAE
:10087000000C990BFC01EE0FFF1F8E0F9F1FFC0158
:10088000E253FD4F808160E08F730E94BC01D8CF9E
:100890008091840090918500049680349C4918F4DE
:1008A00080E49CE905C080918400909185000496C5
:1008B00090938900809388008FEF8093CD023BC096
:1008C00020918400309185008091CD02082E000C8B
:1008D000990BFC01EE0FFF1F8E0F9F1FFC01E253CF
:1008E000FD4F81819281820F931F909389008093A5
:1008F00088008091CD02082E000C990BFC01EE0FB0
:10090000FF1F8E0F9F1FFC01E253FD4F808186FF6A
:1009100012C08091CD02082E000C990BFC01EE0F45
:10092000FF1F8E0F9F1FFC01E253FD4F808161E08E
:100930008F730E94BC01FF91EF91BF91AF919F9186
:100940008F917F916F915F914F913F912F910F9078
:100950000FBE0F901F901895DC011196EC91119726
:10096000F0E0CF01880F991FE80FF91FE253FD4F08
:1009700080818F7B80831C962D913C911D971A96C8
:100980004D915C911B976D91062E000C770BCD015C
:100990000C9414028F929F92AF92BF92CF92DF92EB
:1009A000EF92FF920F931F93CF93DF93EC014A01D5
:1009B0005B016E857F85072E000C880B990B0E94CA
:1009C000A911A50194010E94A21187FF52C0688954
:1009D0007989072E000C880B990B0E94A911A5019B
:1009E00094010E94141518160CF043C08C829D824D
:1009F000AE82BF820A851B85B801012E000C880BD0
:100A0000990B0E94A9116B017C0120E030E044E3C6
:100A100053E4C501B4010E9425144B015C016C85AF
:100A20007D85601B710B072E000C880B990B0E94B3
:100A3000A9119B01AC01C501B4010E9408129B01E0
:100A4000AC01C701B6010E9447130E949714798731
:100A50006887CE010196DF91CF911F910F91FF9092
:100A6000EF90DF90CF90BF90AF909F908F900C94BD
:100A7000B603DF91CF911F910F91FF90EF90DF9020
:100A8000CF90BF90AF909F908F9008958F929F923C
:100A9000AF92BF92CF92DF92EF92FF920F931F938C
:100AA000CF93DF93EC016C817D81072E000C880BC6
:100AB000990B0E94A9116B017C016A817B81072E31
:100AC000000C880B990B0E94A9114B015C018881D5
:100AD0009981BC01990F880B990B0E94A911AB0158
:100AE000BC0195018401CE010E94BF054A8D5B8D3A
:100AF0006C8D7D8D88899989DF91CF911F910F91A0
:100B0000FF90EF90DF90CF90BF90AF909F908F902D
:100B10000C94CA04E0915003F09151030190F081CC
:100B2000E02D682F80E593E009940E94C416E0E56B
:100B3000F3E0A089B18982E08C93A485B5851C92ED
:100B4000A685B78587E68C93108EA489B58986E043
:100B50008C93A289B3898C9180618C93A289B3898B
:100B60008C9188608C93A289B3898C9180688C93D6
:100B70000288F389E02D80818F7D808308952F92F4
:100B80003F924F925F926F927F928F929F92AF921D
:100B9000BF92CF92DF92EF92FF920F931F93CF936A
:100BA000DF93CDB7DEB7A8970FB6F894DEBF0FBEC0
:100BB000CDBF1C01498B5A8B6B8B7C8B0D8B1E8B95
:100BC0002F8B388F9A01AB01CA01B9010E9408121C
:100BD0004B015C012D893E894F89588DCA01B901AD
:100BE0000E9408129B01AC01C501B4010E94471389
:100BF000698F7A8F8B8F9C8FA7019601C701B601F1
:100C00000E9408129B01AC01698D7A8D8B8D9C8DA1
:100C10000E9447130E94271569837A838B839C83E4
:100C2000D1015E968D919D910D90BC91A02D8D83EB
:100C30009E83AF83B887D10192968D919D910D903F
:100C4000BC91A02D8D879E87AF87B88BF10146A000
:100C500057A060A471A42D813E814F815885CA019F
:100C6000B9010E9408124B015C012D853E854F851C
:100C70005889CA01B9010E9408129B01AC01C50143
:100C8000B4010E9447134B015C010E94271569873C
:100C90007A878B879C8729813A814B815C81CA0145
:100CA000B9010E9408126D8F7E8F8F8F98A3A301C8
:100CB0009201C301B2010E94081269A37AA38BA317
:100CC0009CA329853A854B855C85CA01B9010E94A0
:100CD000471369877A878B879C872D8D3E8D4F8D33
:100CE00058A1C501B4010E94471329A13AA14BA103
:100CF0005CA10E9446136DA37EA38FA398A72981B0
:100D00003A814B815C8169857A858B859C850E94BF
:100D100008129B01AC016DA17EA18FA198A50E9434
:100D200025140E94351369837A838B839C832D81DC
:100D30003E814F8158856D857E858F8598890E947B
:100D4000C6136D837E838F839887698D7A8D8B8D93
:100D50009C8D0E9427159B01AC01C701B6010E9422
:100D6000C6136B017C0129A13AA14BA15CA1C5016D
:100D7000B4010E9447132D8D3E8D4F8D58A10E94C6
:100D800046134B015C01A301920169857A858B852D
:100D90009C850E9408129B01AC01C501B4010E9410
:100DA00025140E9435134B015C012D813E814F813A
:100DB00058850E9446132B013C0129813A814B81C1
:100DC0005C81C501B4010E9447132BED3FE049EC63
:100DD0005FE30E944613A70196010E9447134B014F
:100DE0005C012D813E814F81588569817A818B819B
:100DF0009C810E944713A70196010E9447136B0133
:100E00007C0129893A894B895C896D897E898F8922
:100E1000988D0E94C6132BED3FE049EC5FE30E94E2
:100E200047132BED3FE049E450E40E94251420E0F5
:100E300030E044E353E40E940812AB01BC01D1014D
:100E400018968D919C9119970E94CA042BED3FE052
:100E500049E450E4C701B6010E94251420E030E0C7
:100E600044E353E40E940812AB01BC01F101828506
:100E700093850E94CA04A30192016BED7FE089E48F
:100E800090E40E9446132BED3FE049E450E40E94B9
:100E9000251420E030E044E353E40E940812AB0143
:100EA000BC01D1011C968D919C911D970E94CA0492
:100EB0002BED3FE049E450E4C501B4010E94251444
:100EC00020E030E044E353E40E940812AB01BC018F
:100ED000F10186859785A8960FB6F894DEBF0FBE00
:100EE000CDBFDF91CF911F910F91FF90EF90DF90D9
:100EF000CF90BF90AF909F908F907F906F905F90BA
:100F00004F903F902F900C94CA044F925F926F9233
:100F10007F92EF92FF920F931F93CF93DF93CDB702
:100F2000DEB7A1970FB6F894DEBF0FBECDBF7C0130
:100F3000FA01CB0119A2223008F42AE08E010F5DDC
:100F40001F4F422E512C612C712CBF01A301920125
:100F50000E94DC12F901CA01015011096A3014F42F
:100F6000605D01C0695CD8016C93232B242B252B79
:100F700061F7B801C7010E94FF02A1960FB6F8946D
:100F8000DEBF0FBECDBFDF91CF911F910F91FF90BC
:100F9000EF907F906F905F904F9008954F925F9287
:100FA0006F927F928F929F92AF92BF92CF92DF9279
:100FB000EF92FF926B017C01B42E9B01AC010E9469
:100FC0006B15882319F068E871E027C02601370106
:100FD000E89477F82FEF3FEF4FE75FE7C301B201E7
:100FE0000E946B1581110DC02FEF3FEF4FE75FE7B8
:100FF000C301B2010E94A21118161CF46CE871E042
:101000000CC02FEF3FEF4FE75FE4C701B6010E942E
:101010001415181694F460E971E080E593E0FF90F0
:10102000EF90DF90CF90BF90AF909F908F907F9088
:101030006F905F904F900C94FF022FEF3FEF4FE7C0
:101040005FECC701B6010E94A21187FDE4CF20E04A
:1010500030E0A901C701B6010E94A21187FF09C0B3
:101060008DE20E948A054C01F7FAF094F7F8F094AB
:1010700002C0812C912CA12C60E070E080E09FE305
:10108000AB1441F020E030E040E251E40E9425142E
:10109000A394F6CF9B01AC01C701B6010E94471390
:1010A0002B013C010E949E146B017C010E94A71140
:1010B0009B01AC01C301B2010E9446132B013C010C
:1010C0002AE0B701A60180E593E00E9485077C0134
:1010D000E80CF91CBB2029F08EE20E948A05E80E7C
:1010E000F91EDB2CDD2031F120E030E040E251E45C
:1010F000C301B2010E9408122B013C010E949E1400
:101100004B01A12CB12C2AE0B501A40180E593E0AC
:101110000E948507E80EF91EC501B4010E94A711BF
:101120009B01AC01C301B2010E9446132B013C019B
:10113000DA94D8CFC701FF90EF90DF90CF90BF90A7
:10114000AF909F908F907F906F905F904F90089599
:101150000F931F93CF93DF9300D000D0CDB7DEB7AE
:10116000AC01990F660B770B77FF1BC08DE24983AB
:101170005A836B837C830E948A058C0149815A8142
:101180006B817C8170956095509541955F4F6F4F55
:101190007F4F2AE080E593E00E948507080F191F22
:1011A00006C02AE080E593E00E9485078C016FE489
:1011B00071E080E593E00E94FF02800F911F0F9085
:1011C0000F900F900F90DF91CF911F910F91089585
:1011D0000F931F93CF93DF93EC010E94FF028C01CA
:1011E0006FE471E0CE010E94FF02800F911FDF913A
:1011F000CF911F910F9108950C94FF022F923F926F
:101200004F925F926F927F928F929F92AF92BF9216
:10121000CF92DF92EF92FF920F931F93CF93DF93C2
:10122000CDB7DEB7CF59D1090FB6F894DEBF0FBEE8
:10123000CDBF5C01DC016D907C90119712968D9072
:101240009C90139714964D905C90159766E571E00D
:1012500080E193E00E946E118E010F5B1F4FC12C45
:10126000D12C7801009781F0BFEFCB1ADB0ABC01CB
:10127000C8010E94D21666E571E080E090E00E940D
:101280006E11085F1F4FEECF6CE971E0C7010E943D
:10129000C916892B09F0A6C064E971E080E593E0E6
:1012A0000E94E808C60113E0880F991F1A95E1F71C
:1012B0000797E80EF91E1CE4F1E0CF1AD1081C14C0
:1012C0001D040CF041C0F701319780818835E1F0B1
:1012D00064F4863479F1833599F568EA71E080E544
:1012E00093E00E94E80813E52BC08935C1F08A35E8
:1012F00039F564EA71E080E593E00E94E808C701EF
:101300000E9450112C011CC060EA71E080E593E05E
:101310000E94E808C7010E9450113C0111C062EA16
:1013200071E080E593E00E94E808C7010E94501137
:101330004C0106C066EA71E080E593E00E94E8088F
:10134000E8E0EE1AF108B8CF1C3409F048C061EBB0
:1013500071E080E593E00E94E808C3010E94A808BC
:10136000C4010E94A808C2010E94A808B201052C6D
:10137000000C880B990B0E94A9116B017C01B40130
:10138000092C000C880B990B0E94A911C756DF4F3E
:10139000688379838A839B83C959D040B301072C22
:1013A000000C880B990B0E94A911AB01BC01C75618
:1013B000DF4F088119812A813B81C959D040C5017D
:1013C0000E94BF05D50111967C926E9213969C9255
:1013D0008E92129715965C924E92149710C468EBF9
:1013E00071E009C06AEC71E0C7010E94C916892B3F
:1013F00039F462EC71E080E593E00E94E808FFC3F5
:1014000066ED71E0C7010E94C916892BC9F56EEC23
:1014100071E080E593E00E94E808B1E1EB0EF11C79
:1014200001E010E00C151D050CF0E9C3F701399738
:1014300080818335F9F4389680818134D9F4C701ED
:101440000E9450113C01C70108970E9450114C01A5
:10145000B301770C880B990B0E94A911AB01BC0159
:10146000F4013496EE0FFF1FEA0DFB1D8081918180
:101470000E94CA040E5F1F4FE0E1EE0EF11CD2CFB6
:1014800062EE71E0C7010E94C916892B09F092C073
:101490006AED71E080E593E00E94E808F1E1EF0E6B
:1014A000F11C81E090E0C756DF4F99838883C959CA
:1014B000D040C756DF4F88819981C959D0408C15DB
:1014C0009D050CF09CC3F70139978081833509F0A5
:1014D00060C038968081803509F05BC0C7010E94EA
:1014E00050114C01C70108970E9450110496FC014D
:1014F000EE0FFF1FEA0DFB1D00811181D8011A9626
:101500002D903C901B97281439040CF042C01C9677
:10151000ED91FC911D97C356DF4FF983E883CD59B8
:10152000D0408E169F06ACF519969C928E92189715
:10153000B40162197309072E000C880B990B0E94E5
:10154000A91120E030E044E353E40E9408122B018B
:101550003C01C356DF4F68817981CD59D040621973
:101560007309072E000C880B990B0E94A9119B018F
:10157000AC01C301B2010E942514D80114966D93E9
:101580007D938D939C931797B401C80101960E9497
:10159000B603C756DF4FE881F981C959D04032966A
:1015A000C756DF4FF983E883C959D040F0E1EF0E09
:1015B000F11C7FCF6EEE71E0C7010E94C916892B26
:1015C00009F07EC0D70118968C91833509F017C3B6
:1015D00066EE71E080E593E00E94E808C701099695
:1015E0000E945011880F991FA80EB91EF501808521
:1015F000918528E0FC013A96DE01119601900D924A
:101600002A95E1F7DC011A968D909C901B971C9609
:101610000D911C911D97960173E0220F331F7A954F
:10162000E1F727503109E20EF31EE1E0CE1AD108AE
:10163000F2E0CF16D10404F1F701319780818D34A7
:1016400069F08D36A9F465EF71E080E593E00E94C2
:10165000FC08C7010E9450114C010AC063EF71E001
:1016600080E593E00E94E808C7010E9450118C01B8
:10167000B8E0EB1AF108D9CFD50118968D919C915D
:1016800019979A8289821C830B8328E0FE01319688
:10169000DE01AF56BF4F01900D922A95E1F7CF566C
:1016A000DF4F99828882C159D040CD56DF4F1983D0
:1016B0000883C359D04028E0FE01EF56FF4F82C097
:1016C0006FEF71E0C7010E94C916892B09F083C032
:1016D000F7018085833509F092C267EF71E080E5FC
:1016E00093E00E94E808C70109960E945011880FF4
:1016F000991FA80EB91ED50118968D919C91199726
:1017000028E0FC013A96DE01119601900D922A958F
:10171000E1F7FC018684978400891189960153E0E2
:10172000220F331F5A95E1F727503109E20EF31EBD
:1017300021E0C21AD10882E0C816D10404F1F701F1
:10174000319780818D3469F08D36A9F465EF71E0B1
:1017500080E593E00E94FC08C7010E9450114C01F3
:101760000AC063EF71E080E593E00E94E808C701DA
:101770000E9450118C01F8E0EF1AF108D9CFD50181
:1017800018968D919C9119979E828D8218870F8350
:1017900028E0FE013196DE01A757BF4F01900D9260
:1017A0002A95E1F7C357DF4F99828882CD58D04000
:1017B000C157DF4F19830883CF58D04028E0FE017E
:1017C000E757FF4FDC011A9601900D922A95E1F739
:1017D0000E94AC0414C26CE072E0C7010E94C916FA
:1017E000892BC9F564E072E080E593E00E94E80887
:1017F0008501085F1F4F6501B2E1CB0ED11C38E0B7
:10180000F32EF801819191918F01E6E2F1E0DE0182
:10181000AF57BF4F2F2D01900D922A95E1F7FE0192
:10182000EF57FF4FDC011A962F2D01900D922A954C
:10183000E1F70E94AC040C151D0519F788E1EEE0F4
:10184000F1E0D501529601900D928A95E1F7C5011C
:101850000E944605D4C169E172E0C7010E94C91621
:10186000892B09F04CC061E172E080E593E00E94B1
:10187000E8087501F2E1EF0EF11C00E010E0C8018C
:101880000E94C612D7018D937D010F5F1F4F083153
:101890001105A9F7B8E0AB0EB11C28E0F22EFE014D
:1018A000EF57FF4F6F014801F8E08F0E911CC80100
:1018B0000E94C612D6018D936D010F5F1F4F081550
:1018C0001905A9F7F501819191915F01FE01EF578B
:1018D000FF4FDE0111962F2D01900D922A95E1F711
:1018E000FE013196DC011A962F2D01900D922A955A
:1018F000E1F70E94AC040034110589F680C166E26C
:1019000072E0C7010E94C916892B09F057C06EE129
:1019100072E080E593E00E94E8087501F2E1EF0EC5
:10192000F11C00E010E0D7016D917D01C801C156A6
:10193000DF4F6883CF59D0400E94C612C156DF4F97
:101940006881CF59D040681719F0C8010E94CE12A3
:101950000F5F1F4F0831110531F7B8E0AB0EB11C16
:1019600000E210E0F501C190D1905F017801F8E04C
:10197000EF1AF1082AE0C20ED11CD6016D916D015B
:10198000C701C156DF4F6883CF59D0400E94C612AD
:10199000C156DF4F6881CF59D040681719F0C70191
:1019A0000E94CE12BFEFEB1AFB0AE016F10629F7F0
:1019B000085F1F4F08341105A9F621C163E372E0E7
:1019C000C7010E94C916892BD9F46BE272E080E549
:1019D00093E00E94E8088501085F1F4FE2E1AE0E28
:1019E000B11CD8018D919D918D01FC0144815581DF
:1019F000668177810E94CA040A151B0591F7FFC012
:101A000060E472E0C7010E94C916892B79F568E38A
:101A100072E080E593E00E94E808D50114966D918C
:101A20007C911597072E000C880B990B0E94A91129
:101A30006B017C01F50162817381072E000C880B1C
:101A4000990B0E94A9112B013C01D5018D919C910C
:101A5000BC01990F880B990B0E94A911AB01BC0125
:101A600093018201C5010E94BF05C9C06DE472E007
:101A7000C7010E94C916892B09F0C1C065E472E054
:101A800080E593E00E94E80862E572E080E593E07B
:101A90000E94FC08F50187898F9386898F93858939
:101AA0008F9384898F9383898F9382898F9384E620
:101AB00092E09F938F938E010F5F1F4F1F930F93A1
:101AC0000E94D916B80180E593E00E94E8086FE60D
:101AD00072E080E593E00E94FC08D5015A966D9172
:101AE0007D918D919C915D9742E00E94CE076FE4BD
:101AF00071E080E593E00E94FF0268E772E080E514
:101B000093E00E94FC08F501668D778D80A191A17C
:101B100042E00E94CE076DE872E080E593E00E940B
:101B2000FC08D50192966D917D918D919C91959730
:101B300042E00E94CE076DE872E080E593E00E94EB
:101B4000FC08F50166A177A180A591A542E00E945D
:101B5000CE076DE672E080E593E00E94E808F8E0C9
:101B6000AF0EB11C0FB6F894DEBF0FBECDBFE12C97
:101B7000F12C8FE8882E82E0982E9DEBC92E92E002
:101B8000D92EFF92EF929F928F921F930F930E94F4
:101B9000D916B80180E593E00E94FC0864E972E080
:101BA00080E593E00E94FC08D501ED91FD915D0177
:101BB00081898F9380898F9387858F9386858F9373
:101BC00085858F9384858F9383858F9382858F936B
:101BD000DF92CF921F930F930E94D916B80180E530
:101BE00093E00E94E808BFEFEB1AFB0A0FB6F894E7
:101BF000DEBF0FBECDBFF5E0EF16F10411F6C15602
:101C0000DF4F0FB6F894DEBF0FBECDBFDF91CF918F
:101C10001F910F91FF90EF90DF90CF90BF90AF900A
:101C20009F908F907F906F905F904F903F902F90FC
:101C30000895CF93DF93CDB7DEB728970FB6F8940A
:101C4000DEBF0FBECDBF789484B5826084BD84B5FD
:101C5000816084BD85B5826085BD85B5816085BDA7
:101C600080916E00816080936E001092810080915F
:101C700081008260809381008091810081608093E7
:101C80008100809180008160809380008091B1000C
:101C900084608093B1008091B00081608093B00037
:101CA00080917A00846080937A0080917A008260CB
:101CB00080937A0080917A00816080937A0080918D
:101CC0007A00806880937A001092C10010923104EB
:101CD0001092320410923304109234041092EF03E5
:101CE0001092F0031092F1031092F2030E94080286
:101CF0006B017C014B015C0188EB880E8BE0981E28
:101D0000A11CB11C0E9408026C157D058E059F0563
:101D100028F086169706A806B906A0F780E593E096
:101D20009093300480932F040E9497050E9408022C
:101D30006093EF037093F0038093F1039093F203A9
:101D400060E471E080912F04909130040E94FC08BF
:101D50000E9408026B017C014B015C01EAE08E0EDF
:101D6000911CA11CB11C0E9408026C157D058E05FA
:101D70009F0528F086169706A806B906A0F781E009
:101D8000809303040E94970588E0E6E0F1E0DE011D
:101D9000119601900D928A95E1F782E190E00E9400
:101DA00097156C01E980FA800B811C812D813E81A1
:101DB0004F81588562E00E94A902D092FC02C09235
:101DC000FB0288E0E6E0F1E0DE01119601900D9261
:101DD0008A95E1F782E190E00E9497156C01E98015
:101DE000FA800B811C812D813E814F81588565E0F1
:101DF0000E94A902D092FE02C092FD0288E0E6E0B5
:101E0000F1E0DE01119601900D928A95E1F782E1F1
:101E100090E00E9497156C01E980FA800B811C818B
:101E20002D813E814F81588566E00E94A902D092A3
:101E30000003C092FF0288E0E6E0F1E0DE011196C7
:101E400001900D928A95E1F782E190E00E9497154A
:101E50006C01E980FA800B811C812D813E814F81CC
:101E6000588569E00E94A902D0920203C092010342
:101E700088E0E6E0F1E0DE01119601900D928A958E
:101E8000E1F782E190E00E9497156C01E980FA8009
:101E90000B811C812D813E814F8158856AE00E9413
:101EA000A902D0920403C09203038AE290E00E9448
:101EB00097158C018091FB029091FC02F8019187AB
:101EC00080878091FD029091FE02938782878091A6
:101ED000FF02909100039587848780910103909180
:101EE000020397878687D18AC08A828993899183E2
:101EF0008083848995899383828386899789958352
:101F00008483C8010E9446051093060300930503CD
:101F100062E571E080E193E00E94D216C8010E9460
:101F2000FE0868E571E080E193E00E94D21680919E
:101F30000503909106030E94FE0884EFC82EDD245D
:101F4000D394E12CF12C0E940802672B682B692B9B
:101F500041F40E940802623071058105910508F480
:101F600011C10E94080260930C0370930D038093CB
:101F70000E0390930F030091080310910903209121
:101F80000A0330910B03601771078207930740F42F
:101F9000609308037093090380930A0390930B03E3
:101FA000009108031091090320910A0330910B035B
:101FB0004B015C01801A910AA20AB30A95018401BF
:101FC0000A3F11052105310508F4DCC060930803C0
:101FD0007093090380930A0390930B03C092FB0351
:101FE000D092FC03E092FD03F092FE031092FF03F7
:101FF0001092000410920104109202048091F303E5
:102000009091F403A091F503B091F6038093F70348
:102010009093F803A093F903B093FA030E94080287
:102020006093F3037093F4038093F5039093F603A6
:102030000E9408026093EF037093F0038093F10312
:102040009093F2030E9408024B015C016EE571E07F
:1020500080912F04909130040E94FC082AE041E016
:1020600050E060E070E080912F04909130040E9475
:10207000850765E671E080912F04909130040E94FD
:10208000FC082AE0B501A40180912F04909130044E
:102090000E94850767E671E080912F0490913004DB
:1020A0000E94FC088091F3039091F403A091F50342
:1020B000B091F603B501A401481B590B6A0B7B0BC9
:1020C0002AE080912F04909130040E94850767E6F2
:1020D00071E080912F04909130040E94FC0840919F
:1020E000F3035091F4036091F5037091F60380912E
:1020F000F7039091F803A091F903B091FA03481BFC
:10210000590B6A0B7B0B2AE080912F0490913004CD
:102110000E94850769E671E080912F049091300458
:102120000E94FC080E940802AB01BC012AE08091D9
:102130002F04909130040E9485076BE671E0809136
:102140002F04909130040E94E8080E9408024B017D
:102150005C012B013C0185E0480E511C611C711C87
:102160000E940802681579058A059B0508F052C08F
:102170000E9408026093F3037093F4038093F503C5
:102180009093F60380E593E00E9412011816190659
:10219000F4F51092070380E593E00E94F00080932D
:1021A000100380910703E82FF0E0E05FFC4F90817F
:1021B0009A30A1F4108262E771E080E593E00E941A
:1021C000E80860E173E080E593E00E94E808809110
:1021D0000503909106030E94FE0819C0803450F751
:1021E00080E593E00E94120118161906D4F6E091DA
:1021F000070311E01E0F1093070380E593E00E9490
:10220000F000E12FF0E0E05FFC4F8083CACF0E9436
:10221000B20199CE461657066806790608F0A0CF97
:10222000A7CFE0E5F3E01382128288EE93E0A0E00E
:10223000B0E084839583A683B78382E391E09183A2
:10224000808385EC90E09587848784EC90E0978785
:10225000868780EC90E0918B808B81EC90E0938B73
:10226000828B82EC90E0958B848B86EC90E0978B50
:10227000868B118E128E138E148EEDEEF3E0168285
:102280001782108611861286138614861586168686
:102290001786108A118A128A138A148A158A089559
:1022A000FC0188279927E89421912032E9F329300D
:1022B00010F02E30C8F32B3241F02D3239F46894EF
:1022C00004C00E949A11820F911D219120532A303F
:1022D000C0F31EF4909581959F4F089545E354E017
:1022E0000E9473110895FA01A191B081009719F429
:1022F0001097E1F0CD01DC01CD010D90002011F42B
:10230000C00113C0FB012191222319F02015D9F738
:10231000F3CFFB012191201519F41E92119606C0EE
:102320002223C1F70D900020A1F7D001FA01A1935B
:10233000B08308957AE0979F902D879F802D910D0F
:10234000112408950E94E41108F481E00895E894AE
:1023500009C097FB3EF490958095709561957F4FED
:102360008F4F9F4F9923A9F0F92F96E9BB2793959B
:10237000F695879577956795B795F111F8CFFAF4AB
:10238000BB0F11F460FF1BC06F5F7F4F8F4F9F4FDC
:1023900016C0882311F096E911C0772321F09EE83A
:1023A000872F762F05C0662371F096E8862F70E0A0
:1023B00060E02AF09A95660F771F881FDAF7880F7A
:1023C0009695879597F90895990F0008550FAA0BD0
:1023D000E0E8FEEF16161706E807F907C0F0121638
:1023E0001306E407F50798F0621B730B840B950B3B
:1023F00039F40A2661F0232B242B252B21F4089590
:102400000A2609F4A140A6958FEF811D811D08952C
:102410000E941B120C948C120E947E1238F00E94B3
:10242000851220F0952311F00C9475120C947B12F8
:1024300011240C94C0120E949D1270F3959FC1F359
:10244000950F50E0551F629FF001729FBB27F00D62
:10245000B11D639FAA27F00DB11DAA1F649F6627B7
:10246000B00DA11D661F829F2227B00DA11D621F06
:10247000739FB00DA11D621F839FA00D611D221FC0
:10248000749F3327A00D611D231F849F600D211DA4
:10249000822F762F6A2F11249F5750409AF0F1F027
:1024A00088234AF0EE0FFF1FBB1F661F771F881F90
:1024B00091505040A9F79E3F510580F00C94751241
:1024C0000C94C0125F3FE4F3983ED4F38695779561
:1024D0006795B795F795E7959F5FC1F7FE2B880F36
:1024E000911D9695879597F9089597F99F6780E8CC
:1024F00070E060E008959FEF80EC089500240A9456
:102500001616170618060906089500240A941216CE
:102510001306140605060895092E0394000C11F401
:10252000882352F0BB0F40F4BF2B11F460FF04C0AE
:102530006F5F7F4F8F4F9F4F089557FD9058440F07
:10254000551F59F05F3F71F04795880F97FB991F12
:1025500061F09F3F79F087950895121613061406CF
:10256000551FF2CF4695F1DF08C01616170618065C
:10257000991FF1CF86957105610508940895E89437
:10258000BB2766277727CB0197F90895F999FECFE6
:1025900092BD81BDF89A992780B50895262FF999A3
:1025A000FECF1FBA92BD81BD20BD0FB6F894FA9A36
:1025B000F99A0FBE01960895A1E21A2EAA1BBB1B21
:1025C000FD010DC0AA1FBB1FEE1FFF1FA217B307FF
:1025D000E407F50720F0A21BB30BE40BF50B661F15
:1025E000771F881F991F1A9469F7609570958095D9
:1025F00090959B01AC01BD01CF0108952F923F92B0
:102600004F925F926F927F928F929F92AF92BF9202
:10261000CF92DF92EF92FF920F931F93CF93DF93AE
:10262000CDB7DEB7CA1BDB0B0FB6F894DEBF0FBE0B
:10263000CDBF09942A88398848885F846E847D8458
:102640008C849B84AA84B984C884DF80EE80FD805A
:102650000C811B81AA81B981CE0FD11D0FB6F894D0
:10266000DEBF0FBECDBFED0108959F939F770E94FF
:10267000CD140F90002042F49058A2EA2AED3FE0DA
:1026800049E450E40E945E130C948C125058BB270E
:10269000AA270E945E130C948C120E947E1238F0BE
:1026A0000E94851220F039F49F3F19F426F40C940F
:1026B0007B120EF4E095E7FB0C947512E92F0E9453
:1026C0009D1258F3BA17620773078407950720F025
:1026D00079F4A6F50C94BF120EF4E0950B2EBA2FE8
:1026E000A02D0B01B90190010C01CA01A001112418
:1026F000FF27591B99F0593F50F4503E68F11A16C4
:10270000F040A22F232F342F4427585FF3CF469554
:1027100037952795A795F0405395C9F77EF41F1676
:10272000BA0B620B730B840BBAF09150A1F0FF0F40
:10273000BB1F661F771F881FC2F70EC0BA0F621F2C
:10274000731F841F48F4879577956795B795F7951C
:102750009E3F08F0B0CF9395880F08F09927EE0FB1
:102760009795879508950E947E1260F080E891E029
:1027700009F49EEF0E94851228F040E851E071F4C0
:102780005EEF0CC00C947B120C94BF12E92FE07822
:102790000E949D1240F3092E052AB1F32617370730
:1027A0004807590738F00E2E07F8E02569F0E025B4
:1027B000E0640AC0EF6307F8009407FADB01B9018F
:1027C0009D01DC01CA01AD01EF930E943C140E94FF
:1027D0008C120E94F6135F91552339F02BED3FE0E8
:1027E00049E450FD49EC0C9447130895DF93DD272D
:1027F000B92FBF7740E85FE31616170648075B0757
:1028000018F4D92F0E9419159F938F937F936F937C
:102810000E946715E8E6F0E00E94ED140E948C1219
:102820002F913F914F915F910E941B12DD2351F038
:102830009058A2EA2AED3FE049EC5FE3D0785D27AB
:102840000E945E13DF910C948C120E9439140C9438
:102850008C120E94851258F00E947E1240F029F4DA
:102860005F3F29F00C94751251110C94C0120C9416
:102870007B120E949D1268F39923B1F3552391F3C3
:10288000951B550BBB27AA2762177307840738F0DF
:102890009F5F5F4F220F331F441FAA1FA9F335D03C
:1028A0000E2E3AF0E0E832D091505040E695001CF0
:1028B000CAF72BD0FE2F29D0660F771F881FBB1FAA
:1028C000261737074807AB07B0E809F0BB0B802D88
:1028D000BF01FF2793585F4F3AF09E3F510578F0B4
:1028E0000C9475120C94C0125F3FE4F3983ED4F33D
:1028F000869577956795B795F7959F5FC9F7880F88
:10290000911D9695879597F90895E1E0660F771FD9
:10291000881FBB1F621773078407BA0720F0621B6A
:10292000730B840BBA0BEE1F88F7E09508950E9495
:102930009E146894B1110C94C01208950E94A512BF
:1029400088F09F5798F0B92F9927B751B0F0E1F070
:10295000660F771F881F991F1AF0BA95C9F714C020
:10296000B13091F00E94BF12B1E008950C94BF12F3
:10297000672F782F8827B85F39F0B93FCCF3869559
:1029800077956795B395D9F73EF4909580957095B6
:1029900061957F4F8F4F9F4F0895DF93CF931F9384
:1029A0000F938B01EC01E5E9F0E00E94ED140E9429
:1029B0008C129801AE018B01EC0160E070E080E8C0
:1029C0009FE30E9446130E9427159801AE010F91C4
:1029D0001F91CF91DF910C941B12DF93CF931F9324
:1029E0000F93FF92EF92DF927B018C01689406C0F7
:1029F000DA2EEF010E941B12FE01E894A5912591A9
:102A0000359145915591A6F3EF010E945E13FE01A9
:102A10009701A801DA9469F7DF90EF90FF900F918A
:102A20001F91CF91DF9108950E94E41108F48FEF78
:102A300008959B01AC0160E070E080E89FE30C9496
:102A4000251419F416F40C947B120C9470150E9442
:102A5000A512B8F39923C9F3B6F39F57550B87FF17
:102A60000E947E150024A0E640EA90018058569509
:102A7000979528F4805C660F771F881F20F0261733
:102A80003707480730F4621B730B840B2029312968
:102A90004A2BA69517940794202531254A2758F7E5
:102AA000660F771F881F20F026173707480730F476
:102AB000620B730B840B200D311D411DA09581F716
:102AC000B901842F9158880F9695879508959B0199
:102AD000AC010C9408120E94E411880B990B089524
:102AE0009F3F31F0915020F4879577956795B79582
:102AF000880F911D9695879597F9089591505040AC
:102B0000660F771F881FD2F70895991B79E004C0DC
:102B1000991F961708F0961B881F7A95C9F780951C
:102B20000895EE0FFF1F0590F491E02D0994CF93C7
:102B3000DF938230910510F482E090E0E091390457
:102B4000F0913A0420E030E0C0E0D0E0309711F19D
:102B50004081518148175907C0F04817590761F45F
:102B600082819381209719F09B838A832BC0909355
:102B70003A048093390426C02115310519F0421713
:102B8000530718F49A01BE01DF01EF010280F381BF
:102B9000E02DDCCF2115310509F1281B390B24303C
:102BA000310590F412968D919C91139761157105E2
:102BB00021F0FB019383828304C090933A048093B5
:102BC0003904FD01329644C0FD01E20FF31F8193E9
:102BD0009193225031092D933C933AC020913704B0
:102BE00030913804232B41F42091020130910301EC
:102BF0003093380420933704209100013091010173
:102C00002115310541F42DB73EB740910401509193
:102C10000501241B350BE0913704F0913804E217CD
:102C2000F307A0F42E1B3F0B2817390778F0AC01EF
:102C30004E5F5F4F2417350748F04E0F5F1F5093CC
:102C40003804409337048193919302C0E0E0F0E0B0
:102C5000CF01DF91CF9108950F931F93CF93DF930F
:102C6000009709F48CC0FC01329713821282009104
:102C7000390410913A040115110581F42081318144
:102C8000820F931F20913704309138042817390799
:102C900079F5F0933804E093370471C0D80140E02F
:102CA00050E0AE17BF0750F412962D913C91139748
:102CB000AD012115310509F1D901F3CF9D01DA01EB
:102CC0003383228360817181860F971F8217930758
:102CD00069F4EC0128813981260F371F2E5F3F4FA1
:102CE000318320838A819B8193838283452B29F4BE
:102CF000F0933A04E093390442C01396FC93EE93A8
:102D00001297ED01499159919E01240F351FE21749
:102D1000F30771F480819181840F951F02961196BB
:102D20009C938E938281938113969C938E9312979A
:102D3000E0E0F0E0D80112968D919C9113970097F6
:102D400019F0F8018C01F6CF8D919C9198012E5FBE
:102D50003F4F820F931F209137043091380428177A
:102D6000390769F4309729F410923A041092390423
:102D700002C0138212821093380400933704DF914B
:102D8000CF911F910F91089581E090E0F8940C94F9
:102D90007A19FB01DC018D91019080190110D9F3A2
:102DA000990B0895FB01DC0101900D920020E1F7E1
:102DB0000895AEE0B0E0EFEDF6E10C940C130D8950
:102DC0001E8986E08C831A8309838FEF9FE79E8399
:102DD0008D83AE01475E5F4F6F89788DCE0101967E
:102DE0000E94FC162F813885F801E20FF31F108234
:102DF0002E96E4E00C942813ACE0B0E0E2E0F7E1BA
:102E00000C94FE127C016B018A01FC011782168270
:102E1000838181FFBDC1CE0101964C01F7019381F1
:102E2000F60193FD859193FF81916F01882309F449
:102E3000ABC1853239F493FD859193FF81916F0188
:102E4000853229F4B70190E00E94E418E7CF512CB5
:102E5000312C20E02032A0F48B3269F030F4803243
:102E600059F0833269F420612CC08D3239F08033FF
:102E700039F4216026C02260246023C0286021C06C
:102E800027FD27C030ED380F3A3078F426FF06C012
:102E9000FAE05F9E300D1124532E13C08AE0389E55
:102EA000300D1124332E20620CC08E3221F426FD09
:102EB0006BC1206406C08C3611F4206802C08836CD
:102EC00041F4F60193FD859193FF81916F0181118A
:102ED000C1CF982F9F7D9554933028F40C5F1F4FDE
:102EE000FFE3F9830DC0833631F0833771F083350A
:102EF00009F05BC022C0F801808189830E5F1F4FFB
:102F000044244394512C540115C03801F2E06F0E53
:102F1000711CF801A080B18026FF03C0652D70E010
:102F200002C06FEF7FEFC5012C870E94D9182C01DA
:102F300083012C852F77222E17C03801F2E06F0E07
:102F4000711CF801A080B18026FF03C0652D70E0E0
:102F500002C06FEF7FEFC5012C870E94CE182C01B5
:102F60002C852068222E830123FC1BC0832D90E03A
:102F700048165906B0F4B70180E290E00E94E418C8
:102F80003A94F4CFF50127FC859127FE81915F01EA
:102F9000B70190E00E94E41831103A94F1E04F1A22
:102FA00051084114510471F7E5C0843611F0893697
:102FB00039F5F80127FF07C0608171818281938113
:102FC0000C5F1F4F08C060817181072E000C880BB9
:102FD000990B0E5F1F4F2F76722E97FF09C09095A9
:102FE0008095709561957F4F8F4F9F4F2068722E0F
:102FF0002AE030E0A4010E941C19A82EA81844C0A1
:10300000853729F42F7EB22E2AE030E025C0F22F3A
:10301000F97FBF2E8F36C1F018F4883579F0B4C02F
:10302000803719F0883721F0AFC02F2F2061B22EE2
:10303000B4FE0DC08B2D8460B82E09C024FF0AC0D9
:103040009F2F9660B92E06C028E030E005C020E131
:1030500030E002C020E132E0F801B7FE07C0608135
:103060007181828193810C5F1F4F06C060817181E5
:1030700080E090E00E5F1F4FA4010E941C19A82E53
:10308000A818FB2DFF777F2E76FE0BC0372D3E7FD5
:10309000A51450F474FE0AC072FC08C0372D3E7EA1
:1030A00005C0BA2C372D03C0BA2C01C0B52C34FF93
:1030B0000DC0FE01EA0DF11D8081803311F4397ECF
:1030C00009C032FF06C0B394B39404C0832F86783E
:1030D00009F0B39433FD13C030FF06C05A2CB3146B
:1030E00018F4530C5B18B32CB31468F4B70180E2E6
:1030F00090E03C870E94E418B3943C85F5CFB3146C
:1031000010F43B1801C0312C34FF12C0B70180E32A
:1031100090E03C870E94E4183C8532FF17C031FDE7
:1031200003C088E790E002C088E590E0B7010CC0DA
:10313000832F867859F031FF02C08BE201C080E214
:1031400037FD8DE2B70190E00E94E418A51438F431
:10315000B70180E390E00E94E4185A94F7CFAA9454
:10316000F401EA0DF11D8081B70190E00E94E4189E
:10317000A110F5CF332009F451CEB70180E290E0E1
:103180000E94E4183A94F6CFF7018681978102C035
:103190008FEF9FEF2C96E2E10C941A13FC0105903F
:1031A000615070400110D8F7809590958E0F9F1F49
:1031B0000895FC016150704001900110D8F780958E
:1031C00090958E0F9F1F08950F931F93CF93DF93BA
:1031D000FB01238121FD03C08FEF9FEF28C022FF59
:1031E00016C046815781248135814217530744F424
:1031F000A081B1819D012F5F3F4F318320838C934C
:10320000268137812F5F3F4F3783268310C0EB0124
:10321000092F182F0084F185E02D0995892BE1F6FF
:103220008E819F8101969F838E83812F902FDF91C6
:10323000CF911F910F910895FA01AA27283051F1DB
:10324000203181F1E8946F936E7F6E5F7F4F8F4FD7
:103250009F4FAF4FB1E03ED0B4E03CD0670F781F36
:10326000891F9A1FA11D680F791F8A1F911DA11D1B
:103270006A0F711D811D911DA11D20D009F4689454
:103280003F912AE0269F11243019305D3193DEF6FC
:10329000CF010895462F4770405D4193B3E00FD0B2
:1032A000C9F7F6CF462F4F70405D4A3318F0495D9D
:1032B00031FD4052419302D0A9F7EACFB4E0A69580
:1032C0009795879577956795BA95C9F700976105A2
:1032D000710508959B01AC010A2E069457954795F8
:1032E00037952795BA95C9F7620F731F841F951FED
:0832F000A01D0895F894FFCF22
:1032F80000003B0480000000B80BF6FFBE0064002D
:103308000100010064000000204200006543000045
:10331800A041000077430000B80BF6FFBE00000094
:1033280000004901B200E10090011201F00004011F
:10333800564D4450565F317C315F564D4450560DC2
:103348000A004D36303120004D3630352000564DBC
:103358004450455F003A323A007C005F564D445075
:103368004500E58F97E4BFA1E38197E3819FE3835D
:1033780087E383BCE382BF006E616E00696E6600FE
:103388006F766600436F6D6D616E6420473930005B
:10339800580059005A0046006368616E67653A70C4
:1033A80000696E4C696E6500696E53496E7365728B
:1033B8007400436F6D6D616E642047393100436F4F
:1033C8006D6D616E642047393200436F6D6D616EBB
:1033D800642047393300436F6D6D616E64204D354D
:1033E8003030004D006D00436F6D6D616E64204D8F
:1033F80035303100436F6D6D616E64204D3630306D
:1034080000436F6D6D616E64204D36303100436F3F
:103418006D6D616E64204D36303200436F6D6D61A5
:103428006E64204D36303400436F6D6D616E6420DC
:103438004D36303500436F6D6D616E64204D363604
:103448003600696E6974506F7328782C792C7A2944
:10345800203D20002825642C25642C25642900465D
:10346800696E676572733A00287541726D2C6D41FB
:10347800726D2C6641726D29203D2028002C005B5E
:1034880025645D00286D696E50756C73652C6D61DF
:103498007850756C73652C6D696E416E676C652C20
:1034A8006D6178416E676C6529203D200028256490
:0C34B8002C25642C25642C2564290000C0
:00000001FF
