:100000000C9488000C94B0000C94B0000C94B000D8
:100010000C94B0000C94B0000C94B0000C94B000A0
:100020000C94B0000C94B0000C94B0000C947303CA
:100030000C94B0000C94B0000C94B0000C94B00080
:100040000C94CD080C94B0000C9441030C941B0349
:100050000C94B0000C94B0000C94B0000C94B00060
:100060000C94B0000C94B000084AD73B3BCE016E14
:1000700084BCBFFDC12F3D6C74319ABD56833DDAFF
:100080003D00C77F11BED9E4BB4C3E916BAAAABE0E
:10009000000000803F072C7AA5BA6CC590DA3B932C
:1000A00065FC8BBC53F810FD3C5692834DBD879D7B
:1000B0003AB63DCBC9BF5BBE73DA0FC93F00000043
:1000C0000000240027002A0000000000250028006E
:1000D0002B000404040404040404020202020202C9
:1000E00003030303030301020408102040800102FC
:1000F000040810200102040810200000000800027B
:1001000001000003040700000000000000001709C0
:1001100011241FBECFEFD8E0DEBFCDBF12E0A0E0BC
:10012000B1E0E2E0F0E302C005900D92A83FB10714
:10013000D9F724E0A8EFB2E001C01D92A731B207C1
:10014000E1F710E0C8E8D0E004C02197FE010E946A
:10015000DF13C738D107C9F70E9444090C94FF1771
:100160000C940000089580E090E00895FC01538D08
:10017000448D252F30E0842F90E0821B930B541781
:1001800010F0CF96089501970895FC01918D828D0E
:10019000981761F0828DDF01A80FB11D5D968C91DB
:1001A000928D9F5F9F73928F90E008958FEF9FEFE6
:1001B0000895FC01918D828D981731F0828DE80FA2
:1001C000F11D858D90E008958FEF9FEF0895FC015C
:1001D000918D228D892F90E0805C9F4F821B910929
:1001E0008F73992708958BE693E00E94E70021E042
:1001F000892B09F420E0822F0895FC01848DDF0112
:10020000A80FB11DA35ABF4F2C91848D90E0019689
:100210008F739927848FA689B7892C93A089B18978
:100220008C9180648C93938D848D981306C0028882
:10023000F389E02D80818F7D80830895EF92FF9276
:100240000F931F93CF93DF93EC0181E0888F9B8DF9
:100250008C8D981305C0E889F989808185FD24C0BB
:10026000F62E0B8D10E00F5F1F4F0F731127E02E3E
:100270008C8DE8120CC00FB607FCFACFE889F9891B
:10028000808185FFF5CFCE010E94FD00F1CF8B8DDF
:10029000FE01E80FF11DE35AFF4FF0820B8FEA8950
:1002A000FB898081806207C0EE89FF896083E889CD
:1002B000F98980818064808381E090E0DF91CF9133
:1002C0001F910F91FF90EF900895CF93DF93EC0172
:1002D000888D8823C9F0EA89FB89808185FD05C066
:1002E000A889B9898C9186FD0FC00FB607FCF5CFA0
:1002F000808185FFF2CFA889B9898C9185FFEDCFE8
:10030000CE010E94FD00E7CFDF91CF91089580E0FC
:1003100090E0892B29F00E94F30081110C940000D9
:10032000089590E0FC01E650FF4F3491FC01EA5142
:10033000FF4F2491FC01EE52FF4FE491EE2309F4AC
:100340003BC0332339F1333091F038F43130A9F028
:10035000323001F584B58F7D12C0373091F03830DE
:10036000A1F03430B9F4809180008F7D03C080917A
:1003700080008F77809380000DC084B58F7784BD17
:1003800009C08091B0008F7703C08091B0008F7D4D
:100390008093B000F0E0EE0FFF1FE853FF4FA591F0
:1003A000B4918FB7F894EC91611103C020952E237E
:1003B00001C02E2B2C938FBF0895FC0190819C309F
:1003C00080F5818128E830E0281B310987FD3395CD
:1003D000220F331F220F331F621773077CF08281B5
:1003E00028E532E0281B310987FD3395220F331FA2
:1003F000220F331F621773070CF49B01225031093F
:10040000220F331F4FB7F894892F90E0FC01EE0FB5
:10041000FF1F8E0F9F1FFC01E650FD4F328321838B
:100420004FBF08950F931F93CF93DF93EC01888103
:100430008C3008F086C0DB01BB27FD01EA51FF4F7D
:100440008491FD01EE52FF4FA491AA23A1F0B0E0E8
:10045000AA0FBB1FFD01E254FF4F05911491FD014E
:10046000E853FF4FA591B4919FB7F894D801EC9150
:100470008E2B8C939FBF8881E82FF0E0DF01AA0FBD
:10048000BB1FEA0FFB1FE650FD4F6F739081907CFE
:10049000692B608360E272E0FB01E41BF50BAF01A6
:1004A000F7FF02C04D5F5F4F5595479555954795AE
:1004B000498340E659E0BA01621B730B9B0177FF49
:1004C00002C02D5F3F4F35952795359527952A8397
:1004D0006CE00E94D3139CE0899FB001112440E09E
:1004E00050E09A01260F371FF901EE0FFF1F2E0F64
:1004F0003F1FF901E650FD4F908196FD16C04F5FFA
:100500005F4F4C30510569F781110FC01092800088
:1005100082E0809381001092850010928400B19A4D
:1005200080916F00826080936F00E881F0E0CF01DE
:10053000880F991FE80FF91FE650FD4F80818064F6
:1005400080838881DF91CF911F910F910895DC0105
:100550001196EC911197F0E0CF01880F991FE80FE9
:10056000F91FE650FD4F80818F7B80831C962D9173
:100570003C911D971A964D915C911B976D91062E9B
:10058000000C770BCD010C941202EF92FF920F93A7
:100590001F93CF93DF93CDB7DEB728970FB6F894AC
:1005A000DEBF0FBECDBFE982FA820B831C832D8391
:1005B0003E834F8358878C010F5F1F4F2091F802B5
:1005C0002C30A0F431E0320F3093F802FC0121838B
:1005D00030E0F901EE0FFF1F2E0F3F1FF901E6502B
:1005E000FD4F28EB3BE03283218303C02FEFFC015A
:1005F0002183FC01608328E0FE013196DC011A961C
:1006000001900D922A95E1F7FC01248535854285FC
:100610005385062E000C770BC80128960FB6F89468
:10062000DEBF0FBECDBFDF91CF911F910F91FF9025
:10063000EF900C9412021F920F920FB60F9211249A
:100640002F933F934F935F936F937F938F939F93DA
:10065000AF93BF93EF93FF938BE693E00E94FD006F
:10066000FF91EF91BF91AF919F918F917F916F918A
:100670005F914F913F912F910F900FBE0F901F9060
:1006800018951F920F920FB60F9211242F938F93EC
:100690009F93EF93FF93E0917B03F0917C03808124
:1006A000E0918103F091820382FD12C090818091DC
:1006B00084038F5F8F7320918503821751F0E0913F
:1006C0008403F0E0E559FC4F958F8093840301C0CB
:1006D0008081FF91EF919F918F912F910F900FBE8D
:1006E0000F901F9018951F920F920FB60F92112422
:1006F0002F933F934F935F936F937F938F939F932A
:10070000AF93BF93EF93FF938091F90287FF05C0EA
:1007100010928500109284001BC02091F902022ED5
:10072000000C330B8091F80290E02817390784F40D
:100730008091F902082E000C990BFC01EE0FFF1FAF
:100740008E0F9F1FFC01E650FD4F808186FD15C076
:100750008091F9028F5F8093F9022091F902022EB5
:10076000000C330B8091F80290E028173907C4F48D
:100770008091F9028C3064F113C08091F902082E47
:10078000000C990BFC01EE0FFF1F8E0F9F1FFC0149
:10079000E650FD4F808160E08F730E949101D8CFB9
:1007A0008091840090918500049680349C4918F4CF
:1007B00080E49CE905C080918400909185000496B6
:1007C00090938900809388008FEF8093F9023BC05B
:1007D00020918400309185008091F902082E000C50
:1007E000990BFC01EE0FFF1F8E0F9F1FFC01E650BF
:1007F000FD4F81819281820F931F90938900809396
:1008000088008091F902082E000C990BFC01EE0F74
:10081000FF1F8E0F9F1FFC01E650FD4F808186FF5A
:1008200012C08091F902082E000C990BFC01EE0F0A
:10083000FF1F8E0F9F1FFC01E650FD4F808161E07E
:100840008F730E949101FF91EF91BF91AF919F91A2
:100850008F917F916F915F914F913F912F910F9069
:100860000FBE0F901F9018958F929F92AF92BF92DC
:10087000CF92DF92EF92FF920F931F93CF93DF936C
:10088000EC014A015B01CB01BA010E9497066E851B
:100890007F85072E000C880B990B0E94FE11A50185
:1008A00094010E944F1187FF52C068897989072EF1
:1008B000000C880B990B0E94FE11A50194010E9467
:1008C000F51218160CF043C08C829D82AE82BF8256
:1008D0000A851B85B801012E000C880B990B0E941C
:1008E000FE116B017C0120E030E044E353E4C501DC
:1008F000B4010E9454114B015C016C857D85601B25
:10090000710B072E000C880B990B0E94FE119B01A6
:10091000AC01C501B4010E9402139B01AC01C701E7
:10092000B6010E9471100E94C61179876887CE01B6
:100930000196DF91CF911F910F91FF90EF90DF9083
:10094000CF90BF90AF909F908F900C94DD01DF917E
:10095000CF911F910F91FF90EF90DF90CF90BF90BC
:10096000AF909F908F9008956F927F928F929F92F9
:10097000AF92BF92DF92EF92FF920F931F93CF93AC
:10098000DF93CDB7DEB760970FB6F894DEBF0FBE2A
:10099000CDBF7C0180E491E00E94A606570182E170
:1009A000A80EB11C00E010E0C8010E942710F5015C
:1009B00081935F010F5F1F4F08311105A9F75701A0
:1009C000F8E0AF0EB11C88E0D82ECE0109964C019C
:1009D000380198E0690E711CC8010E942710F401CB
:1009E00081934F010F5F1F4F06151705A9F7F501FA
:1009F000819191915F01FE013996DE0111962D2DB5
:100A000001900D922A95E1F7FE013196DC011A96CC
:100A10002D2D01900D922A95E1F70E94A702003436
:100A2000110599F6F7012689378944895589628924
:100A30007389C7010E94B406F701428D538D648DFE
:100A4000758D8089918960960FB6F894DEBF0FBED0
:100A5000CDBFDF91CF911F910F91FF90EF90DF906D
:100A6000BF90AF909F908F907F906F900C943404C4
:100A7000CF92DF92EF92FF920F931F93CF93DF936A
:100A80006C017A018B01C0E0D0E0CE15DF0589F062
:100A9000D8016D918D01D601ED91FC910190F0810D
:100AA000E02DC6010995892B11F47E0102C0219623
:100AB000ECCFC701DF91CF911F910F91FF90EF9085
:100AC000DF90CF900895009769F0FC01019000201D
:100AD000E9F73197AF01481B590BBC018BE693E056
:100AE0000C94380580E090E008950E941215E09182
:100AF0006B03F0916C030190F081E02D682F8BE681
:100B000093E009948F929F92AF92BF920F931F939D
:100B1000CF93DF93CDB7DEB7A1970FB6F894DEBFC2
:100B20000FBECDBF19A2423008F44AE08E010F5D1E
:100B30001F4F842E912CA12CB12CA50194010E9451
:100B40003D10E62FB901CA0101501109EA3014F431
:100B5000E05D01C0E95CD801EC93232B242B252B0D
:100B600061F7C8010E946305A1960FB6F894DEBF35
:100B70000FBECDBFDF91CF911F910F91BF90AF906E
:100B80009F908F9008954F925F926F927F928F9275
:100B90009F92AF92BF92CF92DF92EF92FF926B0142
:100BA0007C01B42E9B01AC010E94B913882319F07B
:100BB00084EF92E027C026013701E89477F82FEF01
:100BC0003FEF4FE75FE7C301B2010E94B913811104
:100BD0000DC02FEF3FEF4FE75FE7C301B2010E9467
:100BE0004F1118161CF483ED92E00CC02FEF3FEF6D
:100BF0004FE75FE4C701B6010E94F512181684F4AE
:100C000087ED92E0FF90EF90DF90CF90BF90AF9094
:100C10009F908F907F906F905F904F900C946305A2
:100C20002FEF3FEF4FE75FECC701B6010E944F1176
:100C300087FDE6CF20E030E0A901C701B6010E94A0
:100C40004F1187FF09C08DE20E9477054C01F7FA2A
:100C5000F094F7F8F09402C0812C912CA12C60E064
:100C600070E080E09FE3AB1441F020E030E040E230
:100C700051E40E945411A394F6CF9B01AC01C7012B
:100C8000B6010E9471102B013C010E94CD116B0135
:100C90007C010E94FC119B01AC01C301B2010E94C6
:100CA00070102B013C014AE0C701B6010E94820589
:100CB0007C01E80CF91CBB2029F08EE20E9477052C
:100CC000E80EF91EDB2CDD2021F120E030E040E2CF
:100CD00051E4C301B2010E9402132B013C010E94A6
:100CE000CD114B01A12CB12C4AE0C501B4010E94E9
:100CF0008205E80EF91EC501B4010E94FC119B019A
:100D0000AC01C301B2010E9470102B013C01DA94C6
:100D1000DACFC701FF90EF90DF90CF90BF90AF90F8
:100D20009F908F907F906F905F904F900895CF939A
:100D3000DF9342E00E94C305EC018BED92E00E943C
:100D400063058C0F9D1FDF91CF910895CF93DF93A3
:100D50000E946305EC018BED92E00E9463058C0F0D
:100D60009D1FDF91CF9108952F923F924F925F92F6
:100D70006F927F928F929F92AF92BF92CF92DF92AB
:100D8000EF92FF920F931F93CF93DF93CDB7DEB710
:100D9000A6970FB6F894DEBF0FBECDBF8C011A0127
:100DA0003EA32DA3DC0111967C936E9313965C9366
:100DB0004E93129715963C932E9314975E968D91B1
:100DC0009D910D90BC91A02D8D839E83AF83B8879C
:100DD000F80142A053A064A075A086A197A1A0A588
:100DE000B1A58D879E87AF87B88B072E000C880B27
:100DF000990B0E94FE116D8B7E8B8F8B988F9B01C0
:100E0000AC010E9402136B017C01229CB001239C67
:100E1000700D700D1124072E000C880B990B0E9489
:100E2000FE119B01AC01C701B6010E947110698BD4
:100E30007A8B8B8B9C8BEDA1FEA1EE9FB001EF9F77
:100E4000700D700D1124072E000C880B990B0E9459
:100E5000FE119B01AC0169897A898B899C890E946A
:100E600071100E94751369877A878B879C872D8103
:100E70003E814F815885CA01B9010E9402136B015E
:100E80007C01A3019201C301B2010E9402139B01E4
:100E9000AC01C701B6010E9471106B017C010E9478
:100EA00075134B015C0129853A854B855C85CA0128
:100EB000B9010E940213698F7A8F8B8F9C8F2D85C9
:100EC0003E854F855889CA01B9010E9402136D8F72
:100ED0007E8F8F8F98A3A5019401C501B4010E9454
:100EE00071104B015C01298D3A8D4B8D5C8DC701D2
:100EF000B6010E9471102D8D3E8D4F8D58A10E941C
:100F0000701069837A838B839C8329853A854B850E
:100F10005C85C501B4010E9402139B01AC0169818B
:100F20007A818B819C810E9454110E945F10698399
:100F30007A838B839C832D813E814F815885C301A9
:100F4000B2010E94F0106D837E838F839887698938
:100F50007A898B899C890E9475139B01AC01ADA194
:100F6000BEA1BD01BB0F880B990B29A33AA34BA3CC
:100F70005CA30E94FE1129A13AA14BA15CA10E9491
:100F8000F0102B013C012D8D3E8D4F8D58A1C701D6
:100F9000B6010E947110298D3A8D4B8D5C8D0E9497
:100FA00070106B017C012D853E854F855889C501E8
:100FB000B4010E9402139B01AC01C701B6010E945B
:100FC00054110E945F106B017C012D813E814F8185
:100FD00058850E9470106D877E878F87988B298136
:100FE0003A814B815C81C701B6010E9471102BEDE3
:100FF0003FE049EC5FE30E947010A30192010E9460
:101000007110698B7A8B8B8B9C8B2D813E814F81EC
:10101000588569817A818B819C810E947110A3011E
:1010200092010E9471104B015C01B101330C880BDD
:10103000990B0E94FE112D893E894F89588D0E947F
:10104000F0102BED3FE049EC5FE30E9471102B01A3
:101050003C0129853A854B855C85CA01B9010E940E
:10106000B913882321F08EED92E00E94A606298113
:101070003A814B815C81CA01B9010E94B91388236E
:1010800021F084EE92E00E94A606A7019601C70116
:10109000B6010E94B913882321F08EEE92E00E94DF
:1010A000A6062BED3FE049E450E4C301B2010E94E3
:1010B000541120E030E044E353E40E940213AB01FA
:1010C000BC01F801808591850E9434042BED3FE03E
:1010D00049E450E4C501B4010E94541120E030E01D
:1010E00044E353E40E940213AB01BC01D8011A96F9
:1010F0008D919C911B970E9434042D853E854F85D0
:1011000058896BED7FE089E490E40E9470102BED2C
:101110003FE049E450E40E94541120E030E044E311
:1011200053E40E940213AB01BC01F801848595854C
:101130000E9434042BED3FE049E450E469897A8948
:101140008B899C890E94541120E030E044E353E4F1
:101150000E940213AB01BC01D8011E968D919C9197
:101160001F97A6960FB6F894DEBF0FBECDBFDF91D6
:10117000CF911F910F91FF90EF90DF90CF90BF9094
:10118000AF909F908F907F906F905F904F903F9027
:101190002F900C9434040C9463051F920F920FB699
:1011A0000F9211242F933F938F939F93AF93BF93ED
:1011B00080910D0490910E04A0910F04B091100441
:1011C00030910C0423E0230F2D3720F40196A11D4C
:1011D000B11D05C026E8230F0296A11DB11D209365
:1011E0000C0480930D0490930E04A0930F04B0930D
:1011F00010048091080490910904A0910A04B09110
:101200000B040196A11DB11D80930804909309045D
:10121000A0930A04B0930B04BF91AF919F918F915B
:101220003F912F910F900FBE0F901F901895EBE6F6
:10123000F3E01382128288EE93E0A0E0B0E08483B2
:101240009583A683B7838AE091E09183808385ECC0
:1012500090E09587848784EC90E09787868780EC80
:1012600090E0918B808B81EC90E0938B828B82EC71
:1012700090E0958B848B86EC90E0978B868B118E1B
:10128000128E138E148E0895CF93DF93CDB7DEB7F1
:10129000C15AD1090FB6F894DEBF0FBECDBF789406
:1012A00084B5826084BD84B5816084BD85B582606B
:1012B00085BD85B5816085BD80916E00816080931C
:1012C0006E00109281008091810082608093810085
:1012D0008091810081608093810080918000816095
:1012E000809380008091B10084608093B1008091F0
:1012F000B00081608093B00080917A008460809318
:101300007A0080917A00826080937A0080917A00DE
:10131000816080937A0080917A00806880937A005F
:101320001092C100E0917B03F0917C0382E0808306
:10133000E0917703F09178031082E0917903F091C6
:101340007A0387E6808310928303E0917F03F09114
:10135000800386E08083E0917D03F0917E038081AD
:1013600080618083E0917D03F0917E0380818860BD
:101370008083E0917D03F0917E038081806880838B
:10138000E0917D03F0917E0380818F7D808388E0F2
:10139000E8E1F1E09E012F5F3F4F6901D901019023
:1013A0000D928A95E1F782E190E00E94E5135C01DD
:1013B000E980FA800B811C812D813E814F81588507
:1013C00062E00E94C502B0921F03A0921E0388E053
:1013D000E8E1F1E0D60101900D928A95E1F782E112
:1013E00090E00E94E5135C01E980FA800B811C818A
:1013F0002D813E814F81588565E00E94C502B092E3
:101400002103A092200388E0E8E1F1E0D6010190F9
:101410000D928A95E1F782E190E00E94E5135C016C
:10142000E980FA800B811C812D813E814F81588596
:1014300066E00E94C502B0922303A092220388E0D6
:10144000E8E1F1E0D60101900D928A95E1F782E1A1
:1014500090E00E94E5135C01E980FA800B811C8119
:101460002D813E814F81588569E00E94C502B0926E
:101470002503A092240388E0E8E1F1E0D601019081
:101480000D928A95E1F782E190E00E94E5135C01FC
:10149000E980FA800B811C812D813E814F81588526
:1014A0006AE00E94C502B0922703A09226038AE256
:1014B00090E00E94E5138C0180911E0390911F0320
:1014C000D80119969C938E93189780912003909140
:1014D00021031B969C938E931A97809122039091DF
:1014E00023031D969C938E931C97809124039091C7
:1014F00025031F969C938E931E975196BC92AE9295
:101500005097C8010E94B404109329030093280344
:10151000E1E4F0E0EC0FFD1F3996C356DF4FF9838D
:10152000E883CD59D04021E430E02C0F3D1F2F5EE1
:101530003F4FC156DF4F39832883CF59D0408BE6C8
:1015400093E00E94E700181619060CF02BC51092C4
:101550006A038BE693E00E94C50080932A03809182
:101560006A03E82FF0E0E65DFC4F90819A3031F598
:10157000108287E591E00E94A6068AE293E00E942D
:10158000A6060091280310912903D801AD90BC90C4
:10159000119712966D907C90139714968D909C9055
:1015A00015976CE972E08AE293E00E94F30FFE0166
:1015B000EF5BFF4F7F01412C512C19C08034C0F6E6
:1015C0008BE693E00E94E7001816190644F6E091B6
:1015D0006A0311E01E0F10936A038BE693E00E94EA
:1015E000C500E12FF0E0E65DFC4F8083B8CF0097A7
:1015F00089F0FFEF4F1A5F0ABC01C7010E94201556
:101600006CE972E080E090E00E94F30F28E0E20EC7
:10161000F11CEDCF65E771E0CE018F5B9F4F0E941B
:101620001715892B09F059C08DE691E00E94A60696
:10163000C20123E0880F991F2A95E1F7079731E44B
:10164000E32EF12CEC0EFD1EE80EF91E4CE4342EB8
:1016500081E0481A510814141504C4F5F7013197B4
:1016600080818835C9F05CF4863441F1833551F5C9
:1016700081E891E00E94A60693E5392E23C08935C2
:10168000A1F08A35F9F48DE791E00E94A606C70122
:101690000E94D50F4C0116C089E791E00E94A60672
:1016A000C7010E94D50F5C010DC08BE791E00E943D
:1016B000A606C7010E94D50F3C0104C08FE791E048
:1016C0000E94A60638E0E31AF108C2CF9CE4391262
:1016D00069C49401A301B50162C462E971E0CE015D
:1016E0008F5B9F4F0E941715892B29F48AE891E0A0
:1016F0000E94A60657C46EE971E0CE018F5B9F4F32
:101700000E941715892BE1F586E991E00E94A60653
:10171000C156DF4FA880B980CF59D0408824839428
:10172000912C841495040CF03DC4F5013997808107
:101730008335F9F4389680818134D9F4C5010E944B
:10174000D50F3C01C50108970E94D50F7C01B3015C
:10175000770C880B990B0E94FE11AB01BC01F701BD
:101760003496EE0FFF1FE00FF11F808191810E94E0
:101770003404A2E08A0E911CB0E1AB0EB11CD1CFB3
:101780006AEA71E0CE018F5B9F4F0E941715892B8B
:1017900009F08DC082EA91E00E94A606C156DF4F93
:1017A000E880F980CF59D040E1E0F0E0C756DF4F44
:1017B000F983E883C959D040C756DF4F2881398162
:1017C000C959D040241535050CF0ECC3F701399701
:1017D0008081833509F05AC038968081803509F0C0
:1017E00055C0C7010E94D50F5C01C70108970E9430
:1017F000D50F0496FC01EE0FFF1FE00FF11F2080B4
:101800003180D1011996BC92AE9218971A96ED913B
:10181000FC911B97C556DF4FF983E883CB59D04025
:10182000B5016E1B7F0B072E000C880B990B0E94D5
:10183000FE1120E030E044E353E40E9402133B0138
:101840004C01D1011C966D917C911D97C556DF4FBF
:10185000E881F981CB59D0406E1B7F0B072E000C1D
:10186000880B990B0E94FE119B01AC01C401B301CE
:101870000E945411D10114966D937D938D939C9386
:101880001797B501C10101960E94DD01C756DF4FD0
:10189000E881F981C959D0403296C756DF4FF983A4
:1018A000E883C959D040F0E1EF0EF11C85CF66EB1B
:1018B00071E0CE018F5B9F4F0E941715892B09F0B5
:1018C0007CC02A968FAD2A97833509F06BC38EEAC8
:1018D00091E00E94A606C356DF4F88819981CD59B9
:1018E000D0400E94D50F880F991F080F191FD801EB
:1018F00018968D919C91199728E0FC013A96D60193
:1019000001900D922A95E1F7FC0182849384A484CE
:10191000B584C20163E0880F991F6A95E1F70797C4
:1019200071E4E72EF12CEC0EFD1EE80EF91E21E00D
:10193000421A510832E043165104E4F0F70131979E
:1019400080818D3459F08D3689F48BEB91E00E94C3
:10195000CB08C7010E94D50F4C0108C080EF91E071
:101960000E94A606C7010E94D50F5C01F8E0EF1A9D
:10197000F108DDCFD80118968D919C9119979A8224
:101980008982BC82AB8228E0F601DE01AF56BF4FF0
:1019900001900D922A95E1F7CF56DF4F9982888208
:1019A000C159D040CD56DF4FB982A882C359D0402B
:1019B00028E0FE01EF56FF4F87C065EC71E0CE01D5
:1019C0008F5B9F4F0E941715892B09F086C02A96BE
:1019D0008FAD2A97833509F0E5C28DEB91E00E9427
:1019E000A606C356DF4F88819981CD59D0400E9409
:1019F000D50F880F991F080F191FF8018085918551
:101A000028E0FC013A96D60101900D922A95E1F763
:101A1000DC011E968D909C901F975096AD90BC90C7
:101A20005197C20133E0880F991F3A95E1F7079764
:101A300041E4E42EF12CEC0EFD1EE80EF91EE1E06F
:101A40004E1A5108F2E04F165104E4F0F7013197B5
:101A500080818D3459F08D3689F48BEB91E00E94B2
:101A6000CB08C7010E94D50F4C0108C080EF91E060
:101A70000E94A606C7010E94D50F5C01B8E0EB1AD0
:101A8000F108DDCFD80118968D919C9119979E820F
:101A90008D82B886AF8228E0F601DE01A757BF4FDE
:101AA00001900D922A95E1F7C357DF4F9982888202
:101AB000CD58D040C157DF4FB982A882CF58D0400F
:101AC00028E0FE01E757FF4FDC011A9601900D92C6
:101AD0002A95E1F70E94A70265C262ED71E0CE018E
:101AE0008F5B9F4F0E941715892B09F050C08AEC1D
:101AF00091E00E94A60687ED91E00E94A60688E18B
:101B0000E8E2F1E0D801529601900D928A95E1F752
:101B10005801B8E0AB0EB11C7801E2E1EE0EF11C09
:101B200088E0982ED5018D919D915D01E0E2F1E074
:101B3000DE01AF57BF4F292D01900D922A95E1F795
:101B4000FE01EF57FF4FDC011A96292D01900D92EF
:101B50002A95E1F70E94A702AE14BF0419F7F80115
:101B6000268937894489558962897389C8010E9409
:101B7000B406D8015A964D915D916D917C915D9717
:101B800050968D919C9151970E9434040BC26AEF3C
:101B900071E0CE018F5B9F4F0E941715892B41F496
:101BA00082EF91E00E94A606C8010E94B404FAC127
:101BB00067E072E0CE018F5B9F4F0E941715892B63
:101BC00009F058C08FEF91E00E94A6067801B2E1BB
:101BD000EB0EF11CA12CB12CF70161917F01C50125
:101BE000CF55DF4F6883C15AD0400E942710CF5590
:101BF000DF4F6881C15AD040681719F0C5010E94B3
:101C00002F10FFEFAF1ABF0A28E1A216B10421F787
:101C1000580138E0A30EB11C00E210E0D501ED90B0
:101C2000FD905D014801B8E08B1A9108EAE0EE0EE4
:101C3000F11CD7016D917D01C401CF55DF4F688341
:101C4000C15AD0400E942710CF55DF4F6881C15A3A
:101C5000D040681719F0C4010E942F10BFEF8B1AF3
:101C60009B0A8016910629F7085F1F4F083411055B
:101C7000A9F698C164E172E0CE018F5B9F4F0E948C
:101C80001715892BC9F48CE092E00E94A606780112
:101C9000E8E0EE0EF11C0E5E1F4FD7018D919D9175
:101CA0007D01FC0144815581668177810E94340465
:101CB000E016F10691F776C161E272E0CE018F5B2A
:101CC0009F4F0E941715892B81F489E192E00E94B1
:101CD000A606D80114962D913C91159712964D9118
:101CE0005C9113976D917C915AC16EE272E0CE01C6
:101CF0008F5B9F4F0E941715892B09F09DC086E2CC
:101D000092E00E94A60683E392E00E94CB08F801CD
:101D100087898F9386898F9385898F9384898F9301
:101D200083898F9382898F9385E492E09F938F9329
:101D3000DF92CF920E942715C6010E94A60680E579
:101D400092E00E94CB08D8015A966D917D918D91B9
:101D50009C915D970E94970689E592E00E94CB08CE
:101D6000F801668D778D80A191A142E00E94C305A4
:101D70008EE692E00E94CB08D80192966D917D91FB
:101D80008D919C91959742E00E94C3058EE692E06A
:101D90000E94CB08F80166A177A180A591A542E039
:101DA0000E94C3058EE492E00E94A606085F1F4FC2
:101DB0000FB6F894DEBF0FBECDBFE12CF12CFF9221
:101DC000EF92A0E7B2E0BF93AF93DF92CF920E9471
:101DD0002715C6010E94CB0885E792E00E94CB0838
:101DE000D801ED91FD918D0181898F9380898F9329
:101DF00087858F9386858F9385858F9384858F9331
:101E000083858F9382858F93AEE9B2E0BF93AF93C2
:101E1000DF92CF920E942715C6010E94A606FFEF0F
:101E2000EF1AFF0A0FB6F894DEBF0FBECDBF35E044
:101E3000E316F10421F6B6C064EB72E0CE018F5BCD
:101E40009F4F0E941715892B09F093C08CEA92E0EE
:101E50000E94A60687E392E00E94CB08D80115965F
:101E60008C9115978F9314968C9114978F9313964A
:101E70008C9113978F9312968C9112978F93119642
:101E80008C9111978F938C918F9385E492E09F931F
:101E90008F93DF92CF920E942715C6010E94A6065B
:101EA00080E592E00E94CB08D8015096ED91FC911C
:101EB000519764817581868197810E949706085F9A
:101EC0001F4F0FB6F894DEBF0FBECDBFE12CF12C33
:101ED000FF92EF92A0E7B2E0BF93AF93DF92CF9271
:101EE0000E942715C6010E94CB0889EB92E00E9450
:101EF000CB085801D801ED91FC9140845184052C08
:101F0000000C660877080F900F900F900F900F90BD
:101F10000F9077FE0CC08DE20E9477056627772729
:101F2000CB0164197509860997094AE003C04AE0A4
:101F3000C301B2010E9482058EE692E00E94CB08A6
:101F40000E5F1F4FD501ED91FC91648175818681F3
:101F5000978142E00E94C3058EE492E00E94A606AB
:101F6000BFEFEB1AFB0AE5E0EE16F10409F0B0CF83
:101F700019C061ED72E0CE018F5B9F4F0E94171573
:101F8000892B81F4D80156962D913C915797549600
:101F90004D915C91559752966D917C915397C801E4
:101FA0000E94B4060E948701CACAFC0188279927AB
:101FB000E89421912032E9F3293010F02E30C8F353
:101FC0002B3241F02D3239F4689404C00E941F1066
:101FD000820F911D219120532A30C0F31EF4909559
:101FE00081959F4F089541E154E00E94F80F0895B4
:101FF000FA01A191B081009719F41097E1F0CD0199
:10200000DC01CD010D90002011F4C00113C0FB01D3
:102010002191222319F02015D9F7F3CFFB0121914B
:10202000201519F41E92119606C02223C1F70D90B7
:102030000020A1F7D001FA01A193B08308957AE0BE
:10204000979F902D879F802D910D11240895F999C8
:10205000FECF92BD81BDF89A992780B50895262FAD
:10206000F999FECF1FBA92BD81BD20BD0FB6F8947D
:10207000FA9AF99A0FBE01960895A1E21A2EAA1BA8
:10208000BB1BFD010DC0AA1FBB1FEE1FFF1FA21728
:10209000B307E407F50720F0A21BB30BE40BF50B25
:1020A000661F771F881F991F1A9469F760957095AE
:1020B000809590959B01AC01BD01CF0108959F9340
:1020C0009F770E9439120F90002042F49058A2EAA4
:1020D0002AED3FE049E450E40E9488100C94BB12C2
:1020E0005058BB27AA270E9488100C94BB120E944C
:1020F000AD1238F00E94B41220F039F49F3F19F469
:1021000026F40C9483120EF4E095E7FB0C947D12F8
:10211000E92F0E94CC1258F3BA176207730784079D
:10212000950720F079F4A6F50C94EE120EF4E095E4
:102130000B2EBA2FA02D0B01B90190010C01CA0181
:10214000A0011124FF27591B99F0593F50F4503E2C
:1021500068F11A16F040A22F232F342F4427585F1E
:10216000F3CF469537952795A795F0405395C9F736
:102170007EF41F16BA0B620B730B840BBAF09150EE
:10218000A1F0FF0FBB1F661F771F881FC2F70EC08D
:10219000BA0F621F731F841F48F487957795679560
:1021A000B795F7959E3F08F0B0CF9395880F08F04C
:1021B0009927EE0F9795879508950E94AD1260F0CC
:1021C00080E891E009F49EEF0E94B41228F040E804
:1021D00051E071F45EEF0CC00C9483120C94EE127B
:1021E000E92FE0780E94CC1240F3092E052AB1F3C2
:1021F000261737074807590738F00E2E07F8E0254D
:1022000069F0E025E0640AC0EF6307F8009407FA7C
:10221000DB01B9019D01DC01CA01AD01EF930E9410
:102220006B110E94BB120E9420115F91552339F05F
:102230002BED3FE049E450FD49EC0C9471100895FA
:10224000DF93DD27B92FBF7740E85FE31616170647
:1022500048075B0718F4D92F0E94FA129F938F93B7
:102260007F936F930E94B513E8E6F0E00E94861218
:102270000E94BB122F913F914F915F910E941513C5
:10228000DD2351F09058A2EA2AED3FE049EC5FE3EC
:10229000D0785D270E948810DF910C94BB120E94B9
:1022A000591208F481E008950E9468110C94BB1241
:1022B0000E94B41258F00E94AD1240F029F45F3F22
:1022C00029F00C947D1251110C94EF120C9483128E
:1022D0000E94CC1268F39923B1F3552391F3951B17
:1022E000550BBB27AA2762177307840738F09F5F37
:1022F0005F4F220F331F441FAA1FA9F335D00E2EA4
:102300003AF0E0E832D091505040E695001CCAF710
:102310002BD0FE2F29D0660F771F881FBB1F2617D3
:1023200037074807AB07B0E809F0BB0B802DBF01AA
:10233000FF2793585F4F3AF09E3F510578F00C9479
:102340007D120C94EF125F3FE4F3983ED4F3869530
:1023500077956795B795F7959F5FC9F7880F911D9A
:102360009695879597F90895E1E0660F771F881F86
:10237000BB1F621773078407BA0720F0621B730B39
:10238000840BBA0BEE1F88F7E09508950E94CD11DB
:102390006894B1110C94EF1208950E94D41288F041
:1023A0009F5798F0B92F9927B751B0F0E1F0660F19
:1023B000771F881F991F1AF0BA95C9F714C0B1305A
:1023C00091F00E94EE12B1E008950C94EE12672F86
:1023D000782F8827B85F39F0B93FCCF38695779589
:1023E0006795B395D9F73EF4909580957095619572
:1023F0007F4F8F4F9F4F0895E89409C097FB3EF49D
:1024000090958095709561957F4F8F4F9F4F992341
:10241000A9F0F92F96E9BB279395F69587957795BF
:102420006795B795F111F8CFFAF4BB0F11F460FF7F
:102430001BC06F5F7F4F8F4F9F4F16C0882311F0D7
:1024400096E911C0772321F09EE8872F762F05C0EB
:10245000662371F096E8862F70E060E02AF09A9586
:10246000660F771F881FDAF7880F9695879597F97B
:102470000895DF93CF931F930F938B01EC01E5E950
:10248000F0E00E9486120E94BB129801AE018B01FF
:10249000EC0160E070E080E89FE30E9470100E9411
:1024A00075139801AE010F911F91CF91DF910C949C
:1024B0001513990F0008550FAA0BE0E8FEEF16164A
:1024C0001706E807F907C0F012161306E407F50728
:1024D00098F0621B730B840B950B39F40A2661F09C
:1024E000232B242B252B21F408950A2609F4A1403F
:1024F000A6958FEF811D811D089597F99F6780E84C
:1025000070E060E008959FEF80EC0895DF93CF9333
:102510001F930F93FF92EF92DF927B018C016894DF
:1025200006C0DA2EEF010E941513FE01E894A59172
:102530002591359145915591A6F3EF010E948810A0
:10254000FE019701A801DA9469F7DF90EF90FF9000
:102550000F911F91CF91DF91089500240A941616D0
:10256000170618060906089500240A941216130681
:10257000140605060895092E0394000C11F488230F
:1025800052F0BB0F40F4BF2B11F460FF04C06F5F2B
:102590007F4F8F4F9F4F089557FD9058440F551F01
:1025A00059F05F3F71F04795880F97FB991F61F0D5
:1025B0009F3F79F087950895121613061406551F4C
:1025C000F2CF4695F1DF08C0161617061806991FB8
:1025D000F1CF86957105610508940895E894BB27AD
:1025E00066277727CB0197F908950E94591208F4BE
:1025F0008FEF08959B01AC0160E070E080E89FE3FD
:102600000C9454110E9415130C94BB120E94AD122D
:1026100038F00E94B41220F0952311F00C947D1232
:102620000C94831211240C94EF120E94CC1270F3BC
:10263000959FC1F3950F50E0551F629FF001729F67
:10264000BB27F00DB11D639FAA27F00DB11DAA1F76
:10265000649F6627B00DA11D661F829F2227B00DC3
:10266000A11D621F739FB00DA11D621F839FA00D4E
:10267000611D221F749F3327A00D611D231F849F9E
:10268000600D211D822F762F6A2F11249F575040F5
:102690009AF0F1F088234AF0EE0FFF1FBB1F661F70
:1026A000771F881F91505040A9F79E3F510580F039
:1026B0000C947D120C94EF125F3FE4F3983ED4F338
:1026C000869577956795B795F795E7959F5FC1F7DD
:1026D000FE2B880F911D9695879597F9089519F40B
:1026E00016F40C9483120C94BE130E94D412B8F307
:1026F0009923C9F3B6F39F57550B87FF0E94CC135C
:102700000024A0E640EA900180585695979528F459
:10271000805C660F771F881F20F026173707480751
:1027200030F4621B730B840B202931294A2BA695A8
:1027300017940794202531254A2758F7660F771FED
:10274000881F20F026173707480730F4620B730BF9
:10275000840B200D311D411DA09581F7B901842FF7
:102760009158880F9695879508959B01AC010C941C
:1027700002130E945912880B990B08959F3F31F064
:10278000915020F4879577956795B795880F911D9F
:102790009695879597F9089591505040660F771F49
:1027A000881FD2F70895991B79E004C0991F9617E6
:1027B00008F0961B881F7A95C9F780950895EE0F4B
:1027C000FF1F0590F491E02D0994CF93DF938230A1
:1027D000910510F482E090E0E0911504F091160468
:1027E00020E030E0C0E0D0E0309711F1408151812D
:1027F00048175907C0F04817590761F4828193813F
:10280000209719F09B838A832BC0909316048093A2
:10281000150426C02115310519F04217530718F485
:102820009A01BE01DF01EF010280F381E02DDCCFD0
:102830002115310509F1281B390B2430310590F49D
:1028400012968D919C9113976115710521F0FB01F2
:102850009383828304C09093160480931504FD0132
:10286000329644C0FD01E20FF31F819391932250F1
:1028700031092D933C933AC02091130430911404F4
:10288000232B41F420910201309103013093140471
:10289000209313042091000130910101211531058D
:1028A00041F42DB73EB74091040150910501241B1E
:1028B000350BE0911304F0911404E217F307A0F430
:1028C0002E1B3F0B2817390778F0AC014E5F5F4F86
:1028D0002417350748F04E0F5F1F509314044093A0
:1028E00013048193919302C0E0E0F0E0CF01DF9107
:1028F000CF9108950F931F93CF93DF93009709F41F
:102900008CC0FC0132971382128200911504109141
:1029100016040115110581F420813181820F931F66
:1029200020911304309114042817390779F5F09396
:102930001404E093130471C0D80140E050E0AE17D6
:10294000BF0750F412962D913C911397AD012115BC
:10295000310509F1D901F3CF9D01DA0133832283D7
:1029600060817181860F971F8217930769F4EC01CC
:1029700028813981260F371F2E5F3F4F31832083F7
:102980008A819B8193838283452B29F4F0931604DB
:10299000E093150442C01396FC93EE931297ED0159
:1029A000499159919E01240F351FE217F30771F4E5
:1029B00080819181840F951F029611969C938E932E
:1029C0008281938113969C938E931297E0E0F0E0BE
:1029D000D80112968D919C911397009719F0F801E8
:1029E0008C01F6CF8D919C9198012E5F3F4F820F05
:1029F000931F20911304309114042817390769F4A8
:102A0000309729F4109216041092150402C0138214
:102A100012821093140400931304DF91CF911F913D
:102A20000F91089581E090E0F8940C94FF17FB015A
:102A3000DC018D91019080190110D9F3990B089553
:102A4000FB01DC0101900D920020E1F70895AEE05A
:102A5000B0E0EDE2F5E10C94D6170D891E8986E011
:102A60008C831A8309838FEF9FE79E838D83AE014A
:102A7000475E5F4F6F89788DCE0101960E944A159F
:102A80002F813885F801E20FF31F10822E96E4E0C3
:102A90000C94F217ACE0B0E0E0E5F5E10C94C81757
:102AA0007C016B018A01FC0117821682838181FF00
:102AB000BDC1CE0101964C01F7019381F60193FD52
:102AC000859193FF81916F01882309F4ABC1853211
:102AD00039F493FD859193FF81916F01853229F43B
:102AE000B70190E00E943217E7CF512C312C20E043
:102AF0002032A0F48B3269F030F4803259F0833206
:102B000069F420612CC08D3239F0803339F42160B2
:102B100026C02260246023C0286021C027FD27C072
:102B200030ED380F3A3078F426FF06C0FAE05F9EA9
:102B3000300D1124532E13C08AE0389E300D11241D
:102B4000332E20620CC08E3221F426FD6BC120642E
:102B500006C08C3611F4206802C0883641F4F601B4
:102B600093FD859193FF81916F018111C1CF982FC2
:102B70009F7D9554933028F40C5F1F4FFFE3F9833A
:102B80000DC0833631F0833771F0833509F05BC0B7
:102B900022C0F801808189830E5F1F4F4424439433
:102BA000512C540115C03801F2E06F0E711CF80170
:102BB000A080B18026FF03C0652D70E002C06FEFDA
:102BC0007FEFC5012C870E9427172C0183012C85DC
:102BD0002F77222E17C03801F2E06F0E711CF8011A
:102BE000A080B18026FF03C0652D70E002C06FEFAA
:102BF0007FEFC5012C870E941C172C012C852068B3
:102C0000222E830123FC1BC0832D90E04816590619
:102C1000B0F4B70180E290E00E9432173A94F4CF0A
:102C2000F50127FC859127FE81915F01B70190E0B6
:102C30000E94321731103A94F1E04F1A51084114B2
:102C4000510471F7E5C0843611F0893639F5F80181
:102C500027FF07C060817181828193810C5F1F4FC4
:102C600008C060817181072E000C880B990B0E5FE4
:102C70001F4F2F76722E97FF09C090958095709503
:102C800061957F4F8F4F9F4F2068722E2AE030E072
:102C9000A4010E946A17A82EA81844C0853729F4F9
:102CA0002F7EB22E2AE030E025C0F22FF97FBF2E12
:102CB0008F36C1F018F4883579F0B4C0803719F038
:102CC000883721F0AFC02F2F2061B22EB4FE0DC087
:102CD0008B2D8460B82E09C024FF0AC09F2F9660F8
:102CE000B92E06C028E030E005C020E130E002C087
:102CF00020E132E0F801B7FE07C060817181828176
:102D000093810C5F1F4F06C06081718180E090E06D
:102D10000E5F1F4FA4010E946A17A82EA818FB2D52
:102D2000FF777F2E76FE0BC0372D3E7FA51450F423
:102D300074FE0AC072FC08C0372D3E7E05C0BA2C56
:102D4000372D03C0BA2C01C0B52C34FF0DC0FE01D5
:102D5000EA0DF11D8081803311F4397E09C032FF04
:102D600006C0B394B39404C0832F867809F0B3945B
:102D700033FD13C030FF06C05A2CB31418F4530CA3
:102D80005B18B32CB31468F4B70180E290E03C8781
:102D90000E943217B3943C85F5CFB31410F43B185E
:102DA00001C0312C34FF12C0B70180E390E03C87B2
:102DB0000E9432173C8532FF17C031FD03C088E7FF
:102DC00090E002C088E590E0B7010CC0832F8678C0
:102DD00059F031FF02C08BE201C080E237FD8DE285
:102DE000B70190E00E943217A51438F4B70180E3D0
:102DF00090E00E9432175A94F7CFAA94F401EA0D9A
:102E0000F11D8081B70190E00E943217A110F5CF2B
:102E1000332009F451CEB70180E290E00E943217CE
:102E20003A94F6CFF7018681978102C08FEF9FEF2A
:102E30002C96E2E10C94E417FC010590615070407F
:102E40000110D8F7809590958E0F9F1F0895FC0173
:102E50006150704001900110D8F7809590958E0FC9
:102E60009F1F08950F931F93CF93DF93FB0123813F
:102E700021FD03C08FEF9FEF28C022FF16C04681BF
:102E80005781248135814217530744F4A081B181D1
:102E90009D012F5F3F4F318320838C9326813781A3
:102EA0002F5F3F4F3783268310C0EB01092F182F68
:102EB0000084F185E02D0995892BE1F68E819F81B3
:102EC00001969F838E83812F902FDF91CF911F9149
:102ED0000F910895FA01AA27283051F1203181F18C
:102EE000E8946F936E7F6E5F7F4F8F4F9F4FAF4F12
:102EF000B1E03ED0B4E03CD0670F781F891F9A1F25
:102F0000A11D680F791F8A1F911DA11D6A0F711DD8
:102F1000811D911DA11D20D009F468943F912AE0E4
:102F2000269F11243019305D3193DEF6CF010895CC
:102F3000462F4770405D4193B3E00FD0C9F7F6CFFD
:102F4000462F4F70405D4A3318F0495D31FD4052C5
:102F5000419302D0A9F7EACFB4E0A695979587955B
:102F600077956795BA95C9F700976105710508953A
:102F70009B01AC010A2E06945795479537952795E6
:102F8000BA95C9F7620F731F841F951FA01D08957E
:102F90002F923F924F925F926F927F928F929F9269
:102FA000AF92BF92CF92DF92EF92FF920F931F9357
:102FB000CF93DF93CDB7DEB7CA1BDB0B0FB6F89408
:102FC000DEBF0FBECDBF09942A88398848885F8448
:102FD0006E847D848C849B84AA84B984C884DF80B9
:102FE000EE80FD800C811B81AA81B981CE0FD11D9D
:102FF0000FB6F894DEBF0FBECDBFED010895F89473
:02300000FFCF00
:10300200000017048000000000001E013805B60011
:103012006501E700C500D9009001C409F6FFBE00B2
:103022009001C409F6FFBE006400010001006400C3
:1030320000002042000065430000A04100007743E9
:10304200526F626F7441726D496E697469616C6925
:103052007A6174696F6E00E58F97E4BFA1E381978F
:10306200E3819FE38387E383BCE382BF00436F6D09
:103072006D616E642047393000580059005A00468D
:10308200006368616E67653A7000436F6D6D616ED3
:10309200642047393100436F6D6D616E642047399A
:1030A2003200436F6D6D616E642047393300436FA8
:1030B2006D6D616E64204D353030006D00436F6D73
:1030C2006D616E64204D35303100436F6D6D616E00
:1030D20064204D36303000526F626F7441726D4918
:1030E2006E697469616C697A6174696F6E5F524F5F
:1030F2004D00436F6D6D616E64204D36303100437B
:103102006F6D6D616E64204D36303200436F6D6DB0
:10311200616E64204D36303400436F6D6D616E64B4
:10312200204D36303500436F6D6D616E64204D3633
:10313200363600696E6974506F7328782C792C7A50
:1031420029203D20002825642C25642C2564290093
:1031520046696E676572733A00287541726D2C6D0F
:1031620041726D2C6641726D29203D2028002C0091
:103172005B25645D00286D696E50756C73652C6DFE
:10318200617850756C73652C6D696E416E676C6504
:103192002C6D6178416E676C6529203D20002825E1
:1031A200642C25642C25642C25642900436F6D6DE5
:1031B200616E64204D36363700286E6F7750756C1D
:1031C20073652C6E6F77416E676C6529203D2028F0
:1031D200004800696E66006F7666000D0A00705F37
:1031E2006E616E0074686574615F6E616E00616C21
:0831F2007068615F6E616E0000
:107800000C94343C0C94513C0C94513C0C94513CE1
:107810000C94513C0C94513C0C94513C0C94513CB4
:107820000C94513C0C94513C0C94513C0C94513CA4
:107830000C94513C0C94513C0C94513C0C94513C94
:107840000C94513C0C94513C0C94513C0C94513C84
:107850000C94513C0C94513C0C94513C0C94513C74
:107860000C94513C0C94513C11241FBECFEFD8E036
:10787000DEBFCDBF11E0A0E0B1E0ECE9FFE702C060
:1078800005900D92A230B107D9F712E0A2E0B1E065
:1078900001C01D92AD30B107E1F70E942D3D0C945F
:1078A000CC3F0C94003C982F959595959595959582
:1078B000905D8F708A307CF0282F295A8091C0000B
:1078C00085FFFCCF9093C6008091C00085FFFCCF60
:1078D0002093C6000895282F205DF0CF982F809127
:1078E000C00085FFFCCF9093C6000895EF92FF92F1
:1078F0000F931F93EE24FF2487018091C00087FD22
:1079000017C00894E11CF11C011D111D81E4E8164B
:1079100082E4F8068FE0080780E0180770F3E09132
:107920000401F091050109958091C00087FFE9CF1E
:107930008091C6001F910F91FF90EF9008950E94D3
:10794000763C982F8091C00085FFFCCF9093C600B5
:1079500091362CF490330CF09053892F089597555D
:10796000892F08951F930E949F3C182F0E949F3CCF
:107970001295107F810F1F9108951F93182F882350
:1079800021F00E94763C1150E1F71F9108951F935A
:10799000182F0E94763C803249F0809103018F5F5E
:1079A000809303018530C1F01F9108958091C0003C
:1079B00085FFFCCF84E18093C6008091C00085FFE5
:1079C000FCCF1093C6008091C00085FFFCCF80E102
:1079D0008093C6001F910895E0910401F091050184
:1079E00009951F9108950E94763C803241F0809164
:1079F00003018F5F80930301853081F008958091AA
:107A0000C00085FFFCCF84E18093C6008091C00058
:107A100085FFFCCF80E18093C6000895E0910401CA
:107A2000F09105010995089540E951E08823A1F0FE
:107A30002D9A28EE33E0FA013197F1F721503040CA
:107A4000D1F72D9828EE33E0FA013197F1F7215064
:107A50003040D1F7815061F708953F924F925F9285
:107A60006F927F928F929F92AF92BF92CF92DF924E
:107A7000EF92FF920F931F93CF93DF93000080E16B
:107A80008093C4001092C50088E18093C10086E015
:107A90008093C2005098589A259A81E00E94143D24
:107AA00024E1F22E9EE1E92E85E9D82E0FE0C02ECA
:107AB00010E1B12EAA24A394B1E49B2EA6E58A2E50
:107AC000F2E57F2EE0E26E2E79E4572E63E5462E36
:107AD00050E5352E0E94763C8033B1F18133B9F107
:107AE000803409F46FC0813409F476C0823409F41B
:107AF00085C0853409F488C0803531F1823521F1A3
:107B0000813511F1853509F485C0863509F48DC0BC
:107B1000843609F496C0843709F403C1853709F423
:107B200072C1863709F466C0809103018F5F80932C
:107B30000301853079F6E0910401F0910501099582
:107B40000E94763C803351F60E94F33CC3CF0E94E2
:107B5000763C803249F78091C00085FFFCCFF092DF
:107B6000C6008091C00085FFFCCF9092C600809136
:107B7000C00085FFFCCF8092C6008091C00085FFC9
:107B8000FCCF7092C6008091C00085FFFCCF609250
:107B9000C6008091C00085FFFCCF5092C600809146
:107BA000C00085FFFCCF4092C6008091C00085FFD9
:107BB000FCCF3092C6008091C00085FFFCCFB09210
:107BC000C60088CF0E94763C863808F4BDCF0E945C
:107BD000763C0E94F33C7ECF0E94763C803809F4CC
:107BE0009CC0813809F40BC1823809F43CC1883942
:107BF00009F48FC080E00E94C73C6CCF84E10E94F2
:107C0000BD3C0E94F33C66CF85E00E94BD3C0E94D3
:107C1000F33C60CF0E94763C809306010E94763C44
:107C2000809307010E94F33C55CF0E94763C80333D
:107C300009F41DC183E00E94BD3C80E00E94C73C66
:107C400049CF0E94763C809309020E94763C809343
:107C5000080280910C028E7F80930C020E94763C79
:107C6000853409F415C18091080290910902892B8D
:107C700089F000E010E00E94763CF801E85FFE4FDA
:107C800080830F5F1F4F80910802909109020817AF
:107C9000190788F30E94763C803209F045CF809125
:107CA0000C0280FF01C16091060170910701660F0F
:107CB000771F7093070160930601A0910802B091AD
:107CC00009021097C9F0E8E0F1E09B01AD014E0F09
:107CD0005F1FF999FECF32BD21BD819180BDFA9A17
:107CE000F99A2F5F3F4FE417F50799F76A0F7B1F4B
:107CF00070930701609306018091C00085FFFCCF5F
:107D0000F092C6008091C00085FFFCCFB092C60003
:107D1000E1CE83E00E94C73CDDCE82E00E94C73CFA
:107D2000D9CE0E94763C809309020E94763C8093D3
:107D300008028091060190910701880F991F909386
:107D40000701809306010E94763C853409F4A6C0A1
:107D500080910C028E7F80930C020E94763C8032D0
:107D600009F0B8CE8091C00085FFFCCFF092C6002C
:107D7000609108027091090261157105B9F140E046
:107D800050E080910C02A82FA170B82FB27011C0E2
:107D9000BB2309F45CC0E0910601F0910701319624
:107DA000F0930701E09306014F5F5F4F46175707B7
:107DB000E8F4AA2369F3F999FECF209106013091E6
:107DC000070132BD21BDF89A90B58091C00085FFB2
:107DD000FCCF9093C6002F5F3F4F30930701209355
:107DE00006014F5F5F4F4617570718F38091C00099
:107DF00085FDE5CE8091C00085FFF8CFE0CE81E023
:107E00000E94C73C67CE0E94763C803209F08CCE3F
:107E10008091C00085FFFCCFF092C6008091C00029
:107E200085FFFCCFE092C6008091C00085FFFCCFAB
:107E3000D092C6008091C00085FFFCCFC092C600E2
:107E40008091C00085FFFCCFB092C60043CEE09188
:107E50000601F091070194918091C00085FFFCCF4D
:107E60009093C6009CCF80E10E94C73C33CE0E9415
:107E7000763C0E94763C182F0E94763C112309F430
:107E800083C0113009F484C08FE00E94C73C22CE29
:107E900080910C02816080930C02E5CE80910C02EF
:107EA000816080930C0259CF809107018823880F4D
:107EB000880B8A2180930B02809106019091070123
:107EC000880F991F90930701809306018091080203
:107ED00080FF09C080910802909109020196909359
:107EE000090280930802F894F999FECF1127E091D6
:107EF0000601F0910701C8E0D1E08091080290915D
:107F00000902103091F40091570001700130D9F34B
:107F100003E000935700E89500915700017001308D
:107F2000D9F301E100935700E89509901990009169
:107F3000570001700130D9F301E000935700E89534
:107F40001395103498F011270091570001700130FB
:107F5000D9F305E000935700E895009157000170B0
:107F60000130D9F301E100935700E895329602976A
:107F700009F0C7CF103011F00296E5CF112480919F
:107F8000C00085FFB9CEBCCE8EE10E94C73CA2CD19
:0C7F900085E90E94C73C9ECDF894FFCF0D
:027F9C00800063
:040000030000780081
:00000001FF